:020000040800F2
:100000001804002045010008F5060008A9020008B0
:10001000F10600088D010008D1080008000000006A
:100020000000000000000000000000005907000868
:100030009101000800000000F70600086D080008A4
:100040005F0100085F0100085F0100085F01000810
:100050005F0100085F0100085F0100085F01000800
:100060005F0100085F0100085F0100085F010008F0
:100070005F0100085F0100085F0100085F010008E0
:100080005F0100085F0100085F0100085F010008D0
:100090005F0100085F0100085F0100085F010008C0
:1000A0005F0100085F0100085F0100085F010008B0
:1000B0005F0100085F0100085F0100085F010008A0
:1000C0005F0100085F0100085F0100085F01000890
:1000D0005F0100085F0100085F0100085F01000880
:1000E0005F0100085F0100085F0100085F01000870
:1000F0005F0100085F0100085F0100085F01000860
:100100005F0100085F0100085F0100085F0100084F
:100110005F0100085F0100085F0100085F0100083F
:100120005F0100085F0100085F0100085F0100082F
:10013000DFF80CD000F018F80048004785090008E7
:10014000180400200648804706480047FEE7FEE7FF
:10015000FEE7FEE7FEE7FEE7FEE7FEE7FEE7FEE777
:100160007108000831010008064C074D06E0E06800
:1001700040F0010394E8070098471034AC42F6D3EE
:10018000FFF7DAFF000A0108200A010800BFFEE7B6
:1001900070472DE9F041024600250026002000238B
:1001A0000024002791F803C00CF00F0591F803C05C
:1001B0000CF0100CBCF1000F03D091F802C04CEA17
:1001C000050591F800C0BCF1000F31D01468002083
:1001D0002BE04FF0010C0CFA00F3B1F800C00CEA70
:1001E00003069E4220D183004FF00F0C0CFA03F758
:1001F000BC4305FA03FC4CEA040491F803C0BCF1CB
:10020000280F06D14FF0010C0CFA00FCC2F814C004
:100210000AE091F803C0BCF1480F05D14FF0010C82
:100220000CFA00FCC2F810C0401C0828D1D314609E
:10023000B1F800C0BCF1FF0F34DD546800202EE09F
:1002400000F1080C4FF0010808FA0CF3B1F800C0F7
:100250000CEA03069E4221D183004FF00F0C0CFAEA
:1002600003F7BC4305FA03FC4CEA040491F803C00D
:10027000BCF1280F05D100F1080C08FA0CF8C2F8FF
:10028000148091F803C0BCF1480F07D100F1080CAD
:100290004FF0010808FA0CF8C2F81080401C08283A
:1002A000CED35460BDE8F08100BFFEE770B50646CE
:1002B0007F231A460021084600F072F92C2000F036
:1002C000EDF9002408E0002503E0304600F0CEF907
:1002D0006D1C802DF9D3641C802CF4D370BD0000FC
:1002E00008B50121082000F007FA4FF48070ADF83E
:1002F000000010208DF8030003208DF802006946ED
:100300001348FFF746FF4FF40070ADF80000694650
:100310000F48FFF73EFF4020ADF8000069460C484B
:10032000FFF737FF2020ADF8000069460848FFF7C7
:1003300030FF8020ADF8000069460548FFF729FF2F
:100340001020ADF8000069460148FFF722FF08BD04
:10035000000C014010B5FFF7C3FF00F00DF91120AC
:1003600000F09CF9782000F0E7FAB12000F096F94F
:10037000012000F067F92C2000F064F92D2000F036
:1003800061F9B22000F08AF9012000F05BF92C201D
:1003900000F058F92D2000F055F9B32000F07EF957
:1003A000012000F04FF92C2000F04CF92D2000F036
:1003B00049F9012000F046F92C2000F043F92D20E6
:1003C00000F040F9B42000F069F9072000F03AF994
:1003D000C02000F063F9A22000F034F9022000F000
:1003E00031F9842000F02EF9C12000F057F9C52022
:1003F00000F028F9C22000F051F90A2000F022F99B
:10040000002000F01FF9C32000F048F98A2000F016
:1004100019F92A2000F016F9C42000F03FF98A20CB
:1004200000F010F9EE2000F00DF9C52000F036F9CB
:100430000E2000F007F9362000F030F9C82000F057
:1004400001F9E02000F02AF90F2000F0FBF81A2053
:1004500000F0F8F80F2000F0F5F8182000F0F2F89E
:100460002F2000F0EFF8282000F0ECF8202000F01A
:10047000E9F8222000F0E6F81F2000F0E3F81B2046
:1004800000F0E0F8232000F0DDF8372000F0DAF883
:10049000002000F0D7F8072000F0D4F8022000F088
:1004A000D1F8102000F0CEF8E12000F0F7F80F208E
:1004B00000F0C8F81B2000F0C5F80F2000F0C2F8CB
:1004C000172000F0BFF8332000F0BCF82C2000F01B
:1004D000B9F8292000F0B6F82E2000F0B3F830204B
:1004E00000F0B0F8302000F0ADF8392000F0AAF8A4
:1004F0003F2000F0A7F8002000F0A4F8072000F04B
:10050000A1F8032000F09EF8102000F09BF82A20AC
:1005100000F0C4F8002000F095F8002000F092F8F8
:10052000002000F08FF87F2000F08CF82B2000F0E6
:10053000B5F8002000F086F8002000F083F80020D5
:1005400000F080F89F2000F07DF8F02000F0A6F881
:10055000012000F077F8F62000F0A0F8002000F06D
:1005600071F83A2000F09AF8052000F06BF8292085
:1005700000F094F810BD000010B500200649086096
:10058000642000F0D9F901200449C1F89801322013
:1005900000F0D2F910BD0000988121420080214274
:1005A000F0B504460D4616461F462A2000F076F8A0
:1005B000002000F047F8A11CC8B200F043F800206A
:1005C00000F040F8B11CC8B200F03CF82B2000F05D
:1005D00065F8002000F036F8E91CC8B200F032F8E7
:1005E000002000F02FF8F91CC8B200F02BF82C20E6
:1005F00000F054F8F0BD2DE9F04F07468846154647
:100600001E46DDF8249008EB0600401E83B27819E0
:10061000401E82B241463846FFF7C2FF00240AE07E
:1006200019F814B009EB440090F801A04BEA0A2035
:1006300000F01CF8641C05FB06F0A042F0DCBDE8ED
:10064000F08F000010B50446002006490860012024
:100650000549C1F89401204600F05EF801200149E7
:10066000086010BD9C8121420080214210B50446E3
:1006700000200849086001200749C1F894012012B0
:1006800000F04AF8E0B200F047F8012001490860A4
:1006900010BD00009C8121420080214210B504461B
:1006A0000020064908600649C1F89401204600F080
:1006B00033F801200149086010BD00009C812142EF
:1006C0000080214208B50121042000F015F84FF404
:1006D0008070ADF8000010208DF8030003208DF825
:1006E000020069460148FFF754FD08BD00080140BB
:1006F00000BFFEE77047704729B1064A926902437E
:10070000044B9A6104E0034A92698243014B9A6167
:1007100070470000001002400021082115E000F0A1
:1007200080021AB101220A4B1A6002E00022084B33
:100730001A600022064B1B1F1A600122054BC3F8EA
:10074000A0214206100E4A1ED1B20029E7DC7047F4
:10075000A481214200802142704710B500F002F8C8
:1007600010BD00000CB500200190009033480068D7
:1007700040F480303149086000BF3048006800F420
:10078000003000900198401C0190009818B9019821
:10079000B0F5A06FF1D12948006800F4003010B125
:1007A0000120009001E0002000900098012843D132
:1007B0002348006840F0100021490860084600689E
:1007C00020F0030008600846006840F0020008605E
:1007D0001A48406819494860084640684860084619
:1007E000406840F4806048600846406820F47C100F
:1007F00048600846406840F4E810486008460068D1
:1008000040F08070086000BF0C48006800F0007085
:100810000028F9D00948406820F0030007494860E3
:100820000846406840F00200486000BF0348406846
:1008300000F00C000828F9D10CBD000000100240A7
:1008400000200240042808D14FF0E021096941F05E
:1008500004014FF0E022116107E04FF0E021096947
:1008600021F004014FF0E022116170477047000051
:1008700010B51348006840F00100114908600846AF
:100880004068104908400E494860084600680E4913
:1008900008400B4908600846006820F48020086082
:1008A0000846406820F4FE0048604FF41F0088604E
:1008B000FFF753FF4FF000600449086010BD0000CF
:1008C000001002400000FFF8FFFFF6FE08ED00E018
:1008D00000BFFEE702E008C8121F08C1002AFAD1D3
:1008E00070477047002001E001C1121F002AFBD1B0
:1008F0007047000010B56FF00400FFF7A3FF0A482F
:1009000000680A49B0FBF1F0094908700846007810
:1009100000EB4001C1EBC0104FF6FF7101EAC000CF
:100920000449088010BD00000000002000127A0079
:1009300014000020160000200146114A12884A4384
:100940004FF0E0235A6100229A611A46126942F080
:1009500001021A6100BF4FF0E022106900F00102AD
:100960001AB100F48032002AF5D04FF0E02212696B
:1009700022F001024FF0E0231A6100229A617047D1
:100980001600002008B5FFF7B5FFFFF79BFEFFF745
:10099000E1FC0020154908604FF6FF70FFF786FC68
:1009A00000201349C1F8A0011FE0124880231A4615
:1009B000002100900846FFF71EFE40F6B830FFF712
:1009C000BBFF0D4880231A46002100900846FFF720
:1009D00012FE41F28830FFF7AFFF0848006808B9FF
:1009E000012000E0002005490860DEE790812142F7
:1009F00000002142000A0008008A0008A0012142EC
:100A000068A9A9B9A9B989B9A9B9A9B9A9B9A9B947
:100A1000A9B9A9B9A9B9A9B9A9B9A9B9A9B9A9B9C6
:100A2000A9B9A9B9A9B989B969B1A9B1A9B1A9B136
:100A3000A9B989B989B989B989B9A9B1A9B1A9A946
:100A400068A188A189A9A9B1CAB1A9B1A9B1A9B15F
:100A5000A9B1A9B1A9B1A9B1AAB1AAB1A9B1A9B1C4
:100A6000A9B989B1A9B989B9A9B989B189B189B136
:100A700089B189A9A9B1CAA9CAA9EAB1EAB10BB2D7
:100A80000BBA0BBA0BBA0BB20BBA0BBAEAB1CAB1BA
:100A9000CAB1AAB189B1A9B189B1AAB1A9B989B9B3
:100AA000A9B989B989B989B9A9B9A9B9A9B1A9B1A6
:100AB000A9B1A9B1A9B1A9B168A989A989A989A927
:100AC00089A989A989A989A989A989A989A989A996
:100AD00089A989A989A989A989A968A9A9B1CAB136
:100AE000A9B1CAB968A989B1A9B1A9B1A9B1A9B176
:100AF000A9B1A9B1A9B1AAB189A968A989A989A9E6
:100B000089B189B1A9B989B9A9B9A9B9A9B9A9B945
:100B1000A9B9A9B9A9B9A9B9A9B9A9B9A9B9A9B9C5
:100B2000A9B9A9B9A9B9A9B9A9B989B169A989B155
:100B3000A9B1A9B189B1A9B1A9B1A9B1A9B1AAB104
:100B4000CAB1A9A948A948A989A9CAB1A9B1A9B195
:100B5000A9B1A9B1A9B1A9B1A9B1A9B189B989B1FD
:100B6000A9B1A9B189A9A9A9A9A9EAB12BBA8DBA34
:100B7000EEC22FCB90D3B1D3F1DBF1DBF2DBF2DBB2
:100B8000F2DBF1DBF1DBD1DBD1DBD1DBB1D3B1D3F4
:100B900090D34FD32FCBCECA6CC22BBAEAB1AAA93D
:100BA00089A989B189B189B1A9B1A9B1A9B1A9B1FD
:100BB000A9B989B9A9B189B189A989A989A989A935
:100BC00089A989A989A989A989A989A989A989A995
:100BD00089A989A989A989A989A989A989A9A9A965
:100BE000A9A9CAB188A989A9A9B1A9A9A9A989A9A5
:100BF00089A988A968A989A989A969A969A969A9E7
:100C0000A9B168B1A9B989B9A9B9A9B9A9B9A9B945
:100C1000A9B9A9B9A9B9A9B9A9B9A9B9A9B9A9B9C4
:100C2000A9B9A9B9A9B9A9B9A9B9AAB9AAB989B1DA
:100C300089B189B1C9B1CAB1A9B1A9B1CAB1CAB999
:100C4000A9B1A9B1CAB189B148A948A189A9A9B1D5
:100C5000A9B1AAB9A9B1A9B1A9B1A9B189B189A903
:100C6000A9A9EAA98CBA0ECB90D3F1DB12DC32D45D
:100C700032D432D452D452D452CC52D452D452D48C
:100C800052D453D452D452D452D432D432D432D493
:100C900012D411CCF1CBB0D390D390D390D32FD327
:100CA000EEC24CBAEAB1C9B189B1A9B18AB18AB967
:100CB0008AB989B9AAB968A989A989A989A989A973
:100CC00089A989A989A989A989A989A989A989A994
:100CD00089A989A989A989A989A989A188A188A19E
:100CE00088A189A188A189A189A989A989A989A996
:100CF000A9A989A989A989A989A989A989A989A944
:100D000089B189B1A9B989B9A9B9A9B9A9B9A9B943
:100D1000A9B9A9B9A9B9A9B9A9B9A9B9A9B9A9B9C3
:100D2000A9B9A9B9A9B9A9B9A9B9A9B9A9B9A9B9B3
:100D3000A9B989B189B1A9B1A9B1A9B1A9B1A9B11B
:100D4000A9B189B1A9B1AAB1AAB1A9B168A948A1AB
:100D500089A9AAB1CAB9AAB1A9A9A9A92BBACECA07
:100D6000B1D312E432DC53DC52D452D473D494D4D1
:100D7000B4DCB4DCB4DCD4D4D4D4D4D4D4DCD4D473
:100D8000D4D4D4DCD4D4B4D4B4D4B4D4B4DCB4DCAB
:100D9000B4DC94D473D453D432D412D4F1CBD1CBA9
:100DA000D1D3B1CB90D32FD3ADC20BB2CAB1AAB1BC
:100DB0008AB1AAB189B168A989A989A989A189A19A
:100DC00089A989A989A989A989A989A989A989A993
:100DD00089A989A989A989A989A9A9A1A9A189A15B
:100DE00089A1A9A188A188A189A989A989A989A975
:100DF00089A989A989A989A989A989A989A989A963
:100E000089B1A9B9AAB989C1A9B9A9B9A9B9A9B911
:100E1000A9B9A9B9A9B9A9B9A9B9A9B9A9B9A9B9C2
:100E2000A9B9A9B9A9B9A9B9A9B9A9B9A9B9A9B9B2
:100E3000A9B9A9B9A9B989B189B189B1AAB9A9B121
:100E4000A9B1A9B1A9B9A9B1A9B1CAB1A9B1C9B189
:100E500068A1689968A12BB20EC3B1D332DC32DC31
:100E600053D473DC93D4B4DCB4D4D4D4D4D4F5DC6C
:100E7000F5DCF5DCF5DCF5DCF5DCD5DCD5DCD5D452
:100E8000D5D4D5D4D5D4D4D4D4D4D4D4B4D4D4DC37
:100E9000B4DCB4DCB4DCB4D4B4D494D494D473D47B
:100EA00053D432CCF1D3B0CB90CB70CB2FCB8DBA07
:100EB000EAA989A1689989A189A989A189A1A9A972
:100EC00089A989A989A989A989A989A989A989A992
:100ED00089A989A989A989A989A9A9A9A9A989A14A
:100EE00089A189A169A189A189A989A989A989A9B2
:100EF00089A989A989A989A989A989A989A989A962
:100F0000A9B1A9B9A9B9A9C1A9B9A9B9A9B9A9B9D1
:100F1000A9B9A9B9A9B9A9B9A9B9A9B9A9B9A9B9C1
:100F2000A9B9A9B9A9B9A9B9A9B9A9B9A9B9A9B9B1
:100F300089B9A9B9A9B9AAC189B969B169B189B190
:100F4000A9B1CAB1A9B9A9B9A9B1A9B1A9B189A9C8
:100F5000C9B18CB290CBF1D332D452D493D4B4DC97
:100F6000D4DCF5DCF5DC15DD15DD15DD15D515D585
:100F7000F5D415D5F5D4F5CCD5CCD4CCD4CCD4CCB3
:100F8000D4CCD4CCD4CCB4CCB4CCB4CCB4CCB4CC01
:100F9000B4CCB4D4B4D4B4CCB4CCB4CCB4D4B4D431
:100FA00094CC73CC53D453D412CCF1CBB1C390C3F3
:100FB0004FC30EC34BB2A99989A169A1A9A989A15F
:100FC00089A989A989A989A989A989A989A989A991
:100FD00089A989A989A989A989A989A989A989A189
:100FE00089A169A168A169A1A9A9A9A9A9A9A9A972
:100FF000A9A9A9A989A989A989A989A989A989A921
:10100000A9B9A9B9A9B9A9B9A9B9A9B9A9B9A9B9D0
:10101000A9B9A9B9A9B9A9B9A9B9A9B9A9B9A9B9C0
:10102000A9B9A9B9A9B9A9B9A9B9A9B9A9B9A9B9B0
:10103000A9B9A9B989B989B9AAB9AAB989B189B12E
:1010400089A9A9B189B9A9B9A9B189A9EAB1CECAB1
:10105000B1E373DC73DC73DC93D4D4D4F4D435D52E
:1010600015DD15DD15D515D5F5D4F5D415D5F5C493
:10107000D4C4F5C4D4C4B4C4B4C494BC93BC93BCA9
:1010800093BC93BC93BC93BC93BC93BC93BC73BC08
:1010900093C494C494C4B3C4B4C4B4C494CC94CC22
:1010A00094CCB4CC94D494D493D473CC52CC12CCEE
:1010B000D1CB70C36FC32FC38DBAAAA189A189A94F
:1010C00089A989A989A989A989A989A989A989A198
:1010D00089A989A989A989A989A969A169A169A1F8
:1010E00069A189A989A9AAA989A989A989A989A977
:1010F00089A989A989A989A989A989A989A989A960
:10110000A9B9A9B9A9B9A9B9A9B9A9B9A9B9A9B9CF
:10111000A9B9A9B9A9B9A9B9A9B9A9B9A9B9A9B9BF
:10112000A9B9AAB9AAB9CAB9A9B9A9B9A9B9A9B98C
:10113000A9B9A9C1A9B9C9B9C9B1C9B1C9A9C9B11F
:1011400069A969B1A9B989B1EAB10EC312DC54DC4D
:1011500073D494DCD4DCF5DC15DD35D535D515CD6F
:1011600035D515CD15D5F5CCD4CCD4CCB4C4B4C4B8
:1011700094C493C473BC73C453C452BC72BC52BCF9
:1011800052BC52BC32BC32BC32BC32BC32BC32BCAF
:1011900032BC32BC32BC52BC53BC73C473C473C4C3
:1011A00093C494C474CC93D493CCB3CC94CC53D484
:1011B00032DC32CCD1CB90C350C330CB6DB2CAA994
:1011C00069A189A969A989A989A989A989A9A9A1BF
:1011D00089A189A189A189A189A189A189A189A9B7
:1011E000A9A9A9A9A9A9A9A989A989A989A989A9EF
:1011F00089A989A989A9A9A9A9A9A9A9A9A989A9DF
:10120000A9B9A9B9A9B9A9B9A9B9A9B9A9B9A9B9CE
:10121000A9B9A9B9A9B9A9B9A9B9A9B9A9B9A9B9BE
:10122000A9B9A9B9A9B9A9B9CAB9AAB9A9B9A9B98C
:10123000A9B9A9B989B188B189B188B189B189B190
:10124000AAB1AAA9A9A9ADC212E453E453DCB4DC43
:10125000D5DC16E516E536DD36DD35D535D515CDCB
:10126000F5CCD4CCB4C4B4C493C473C473C453BC59
:1012700053BC32BC32BC32BC12BC32BC32BC32BCFD
:1012800012BC11BC11BCF1BBF1BB11B4F1BBF1BB81
:10129000F1B311BC12BC11BC12BC12BC12BC32BCEA
:1012A00032BC32BC72BC72C493CC93CC94C4B3CC69
:1012B00093D473D453D432D4F2D370C350CB0FC36E
:1012C0004CBA89A189A189A189A989A989A989A1DA
:1012D00089A169A169A189A1A9A9A9A9A9A9A9A95E
:1012E000A9A989A9A9A9A9A989A989A989A989A90E
:1012F00089A989A989A9A9A9A9A9A9A989A989A9FE
:10130000A9B9A9B9A9B9A9B9A9B9A9B9A9B9A9B9CD
:10131000A9B9A9B9A9B9A9B9A9B9A9B9A9B9A9B9BD
:10132000A9B9A9B9A9B9A9B9A9B1A9B189B188A916
:1013300068A989B189A9A9A9A9B1A9B98AB98AB1A4
:10134000A9A98DBAF1D393E453DC94DCD5DC16DD86
:1013500036DD36DD36DD16DD15D515CDF4CCD4C43D
:10136000B4C493C473C473C473C432BC32BC32BC3F
:1013700012BC12BC12BC12BCF1BBF1B3F1B3F1B39D
:10138000D1B3D1B3D1B3D0B3D1B3D1B3D1B3D1B33E
:10139000D1B3D1B3D1B3F1B3F1B3F1B3F1BBF1B385
:1013A000F1BB11BC30B431BC32C432C452C473BCC2
:1013B00093BC93CC73CC73D453D432D4D1CB90CBD5
:1013C0004FCB0EC32BAAA9A169A169A969A989A1BB
:1013D00089A989A989A989A989A9A9A9A9A9A9A91D
:1013E00089A9A9A9A9A9A9A989A989A989A989A90D
:1013F00089A989A989A9A9A9A9A989A989A989A91D
:1014000089B9A9B9A9B9A9B9A9B9A9B9A9B9A9B9EC
:10141000A9B9A9B9A9B9A9B9A9B9A9B9A9B9A9B9BC
:10142000A9B989B189B188B189B189B1A9B1A9B185
:10143000A9B1A9B1CAB1CAB1A9B1AAB169A9CAB1C0
:1014400070D353E473D4B3D415DD15DD36DD56DD2A
:1014500056DD36D515D5F5CCD4CCD4C4B3C493C49D
:1014600073C453C452BC32BC12BC12BC11BCF1B325
:10147000F1BBF1B3D1B3D1B3D1B3B0B3D0B3B0B347
:10148000B0B390B390B390B390B390B390B390B324
:1014900090B390B3B0B3B0B3B0B3B0B3B0B3B0B374
:1014A000D0B3D0BBF0B312B4F2BBF2C3F1CB32C4B1
:1014B00053BC72C473CC93CC93D453D452CC12CCBF
:1014C000D1C370C32FC38DB2A9A169A189A989A96C
:1014D000A9A9AAA989A989A969A989A9A9A9A9A91B
:1014E000A9A989A9A9A9A9A989A989A989A989A90C
:1014F00089A989A989A989A9A9A989A989A989A93C
:10150000AAB9A9B9A9B9A9B9AAB9CAB9AAB9A9B9A7
:10151000A9B9A9B9A9B9A9B9A9B9A9B9A9B9A9B9BB
:1015200089B168A9A9B1A9B1A9B1AAB1AAB1AAB151
:10153000AAB1AAB1AAB1A9B1CAB188A1ADC2F2DB60
:1015400073E493DCF5DC15DD15DD35DD56DD55D5B1
:1015500035D5F5CCD5CCB4C494C493C473BC53BCBA
:1015600052BC32BC12BC12BCF1BBF1BBD1BBD1B37B
:10157000B0B3B0B3B0B3B0B390B390B38FB38FB3D5
:101580008FB36FB36FB36FB36FB36FB36FB36FB32B
:101590006FB36FB36FB36FB38FB38FB38FB38FB3BB
:1015A00090B390B36EAB3093F4ABD2BBD0C3F1C366
:1015B00012B431BC52BC52C473CC73CC73D473CC50
:1015C00032CCF1CB90C34FC3EEC22BAA8999A9A10B
:1015D000A9A189A989A989A9AAB189A989A989A93A
:1015E00089A9A9A9A9A9A9A989A989A989A989A90B
:1015F00089A989A989A989A9AAA989A969A989A95A
:10160000CAB9CAB9A9B9A9B189B1A9B1A9B1A9B9C8
:10161000A9B9A9B9A9B9A9B9A9B9A9B9A9B9A9B9BA
:1016200089B189B1A9B1A9B1AAB1AAB1AAB1AAB126
:10163000AAB1AAB18AB189B1CAA9B1D393DCB3D492
:10164000F4DCF5E416E516E536DD36DD15D514CD0A
:10165000F4C4D4C4B4C494C473C453C432BC32BC40
:1016600012BC11BCF1BBD1BBD1B3B1B3B0B3B0B3F9
:1016700090B390B38FB36FB36FB36FB36FB36FB3F8
:101680004FB32EAB4EAB4EB34EAB4EAB4EAB4EABA1
:101690002EAB2EAB2EAB4EAB4EAB4EAB4EAB6FB3B9
:1016A0006FB36FB370ABAF6A116BD19BD0BBB0B3EC
:1016B000F2B311B411BC32BC32C452C473CC73CC7B
:1016C00073D453D412D4B1CB90CB2FC38DBAA9A16C
:1016D000899968A169A169A169A989A989A989A923
:1016E00089A9A9A989A9A9A989A989A989A989A92A
:1016F00089A989A989A989A989A989A989A9AAB131
:1017000089A989A988A989B189B189B189B1A9B9FA
:10171000A9B9A9B9A9B9A9B9A9B9A9B9A9B9A9B9B9
:1017200068B1A9B189B1A9B1AAB1AAB1AAB1AAB93E
:10173000AAB9A9B189A94CC2F2EB73E4B3D4F4D429
:1017400015D536DD36E536E5F5D4F5CCF4CCD4C484
:10175000B3C493BC73BC53BC32BC12BC12BCF1BB4F
:10176000F1BBD1B3D0B3B0B3B0B390B390B38FB338
:101770006FB36FB36FB34FB34FB34FAB4EAB4EAB13
:101780002EAB2EAB2EAB2EAB2EAB2EAB2EAB2EAB91
:101790002EAB2EAB2EAB2EAB2EAB2EAB2EAB2EAB81
:1017A0002EAB2EAB8FA3F072D052CF5A6F8BB0B34B
:1017B00090BB90B3CFB3F0B312BC12BC32C452C4CE
:1017C00053CC73CC53D433D4F2CB90C32FC3EEC2DB
:1017D000EAA9899989A189A969A169A169A169A1D0
:1017E00089A189A1A9A9A9A989A989A989A989A939
:1017F00089A989A989A989A969A989A9CAB1AAB107
:10180000A9B1A9B1CAB1CAB1CAB1CAB189B189B1C4
:10181000AAB9A9B9A9B9A9B989C1A9B9A9B1A9B1DF
:1018200069A9A9B1AAB1AAB1A9B1A9B1A9B9A9B91E
:10183000A9A9C9A9EDC273E473DCD4DCF5D477DDC2
:101840001DFF97DD15CD15CD15CDD4C4B4C493C4FB
:1018500073C452BC52BC32BC12BC11BCF1BBD1BB74
:10186000D0B3D0B3B0B390B38FB36FB36FB34FB344
:101870004FB34FB32EAB2EB32EB32EAB0EAB0EAB7E
:101880000EAB0EAB0EAB0EAB0EAB0EAB0EAB0EAB90
:10189000EEAA0EABEEAAEEAAEEAAEEAA0EAB0EAB25
:1018A0000EAB0EAB4EAB2F93126B754B134B3183BC
:1018B0004FB350BBAEBBCFB3B1B3D2B311B450BC76
:1018C00052BC52C453CC53CC33D4F2CB90CB4FCB7D
:1018D0000EC34BB2A9A189A1A9A989A189A1A9A1D6
:1018E000899989998899689989A1A9A9A9A9A9A972
:1018F000A9A989A989A989A9A9A9A9B1AAB1AAB19E
:10190000A9B1A9B1A9B1A9B1AAB1A9B1A9B169A94E
:10191000AAB9CAB9A9B9A9B989C1A9B9A9B189B1DD
:1019200069B1A9B1AAB1AAB1A9B1A9B989B189B15D
:10193000CAA94FD373E493DCF5DC36DD39EE5DFFE5
:101940001CFFBBF6F5C4F4C4D4C493C493C453BC05
:1019500052BC32BC32B4F1BBF1BBD1BBD1BBB0BBCA
:10196000B0B38FAB8FAB6FAB4FB34FB34FB34FB37E
:101970002FB32EB32EB32EB32EB30EB30EB3EEAAE7
:10198000EEAA0EB3EEAAEEAAEEAAEEB2CEAACDAAA7
:10199000EEAACDAACDAACDAACDAACDAAEDAAEEAA2D
:1019A000EEAAEEAAEEB231A3136B195CF84395537D
:1019B000316B519B6FB36EBB8FB3D0ABD0B3F0BB69
:1019C00031B432BC52C453CC53D453D412D4B0CB60
:1019D0004FC3EEC26CBAAAA189A989A989A189A11C
:1019E000A9A1A9A1A9A189A168A168A1A9A989A959
:1019F00089A989A969A989A9A9B1A9B1A9B1AAB1D6
:101A0000A9B1A9B1A9B1A9B1A9B1A9B1A9B189B126
:101A100089B1CAB9A9B9A9B9A9B9A9B9A9B189B1ED
:101A200089B1A9B1AAB1AAB1AAB1AAB989B1CAB1F9
:101A3000B1DB73E4B4DCF4D435D5BBF63DFF1CF761
:101A40001CF73DFF97D593BCB3BC93C453C432BCC1
:101A500032BC32B411B4F1B3D1B3D1B3B0B3B0B37B
:101A6000AFB38FB36FB34FB34FB34FB34FB32FB3C6
:101A70002EB32EB30EB32EB30EBB0EBB0EBB0EBBDE
:101A8000EEBAEEBAEEBAEEB2EEB2EEBACEB2CDB277
:101A9000CDB2ADB2ADB2CDAACDAACDAACDAACDAAB6
:101AA000CDAACDAAADB2CFA2F27AD85BFA3B1A4C3E
:101AB000B753327331A30FBB6EB3AFAB90B390B3D8
:101AC000D0ABF1B311BC52C472CC72CC52CC32CC7C
:101AD000F1CB6FC30EC38DBACAA969A189A189A927
:101AE00089A989A989A9A9A9A9A168A1A9A989A937
:101AF00089A969A9AAB1A9B189B1AAB9AAB98AB9AA
:101B0000A9B1A9B1A9B1A9B1A9B1A9B1A9B1A9B105
:101B100089B1A9B1A9B9A9B9A9B9A9B9C9B968B10E
:101B2000AAB1A9B189B1AAB1AAB189A9EAA9F2E376
:101B300073E4B4D4F4D476D5FCFE5DFF1CF73CEF1F
:101B40001CEF3CEFDBF692B493BC52BC12BC12BC4F
:101B5000F1BBF1B311B4F1B3B0ABB0ABB0B38FAB79
:101B60004FB34FB34FB36FB34FBB4FBB2FBB2FBB65
:101B70002FBB2FC32FBB2FC32FBB0EC30FC30FC34E
:101B80000FC30FC30EC3EEC2EEC2CEC2CEBACEC2D8
:101B9000CEBACEBAADBAADB2CDB2CDB2CDB2CDB273
:101BA000CDAACDAACCB2ACA21093135BD94BDA4329
:101BB000DA4BD763D27A30AB4EAB6DAB4FB370B369
:101BC000AFABD0B3F0B3F1BB11BC32C452CC73CCC9
:101BD00032CCD1CB70CB0FC38DBAEAA189A189A138
:101BE00089A989A989A989A9A9A168A189A968A19F
:101BF00069A9AAB1AAB189B989B98AB98AB9AAB9B0
:101C0000A9B1A9B1A9B1A9B1A9B1A9B1A9B1A9B104
:101C100089A9A9B1CAB9A9B9A9B9A9B9A9B968B114
:101C2000A9B1A9B1AAB1AAB9AAA92BAA12E494E4AC
:101C3000F5DC15D5D7DD1CFF5DFF1CF71CEF1CEF95
:101C40001CEF1CEF1CF7B7D532B432BC12BCF1BB91
:101C5000F1BBF1C3B1C3B0BB90BB8FB36FAB6FB37C
:101C60004FBB4FBB4FBB50C34FC32FC32FC32FC35B
:101C70002FC32FC32FC32FCB2FC30FCBEFC2EFC266
:101C8000EFC2EFC2EFC2EFC2EFC2EFC2CEC2CEC20E
:101C9000CEC2CEC2CEC2CEC2AEBAADBAADBAADB26F
:101CA000ADB2ADB2ECAACCB2CEA2906A7653DA4B0A
:101CB000BA4BB94BB763D1722F9B2DB30EB32FAB79
:101CC0006FAB8FB3B0B3D0B3F1BB11BC52C452C42D
:101CD00052CC32D4F1CB70CB2FC3CDBAEAA1A9A993
:101CE00069A989A989A989A1A9A968A189A1A9A97D
:101CF000AAB1AAB98AB9A9B989B9A9B1AAB1AAB12F
:101D0000A9A9A9A9A9A989A988A188A189A9CAB1AC
:101D1000A9B189B1A9B9A9B9A9B9A9B9A9B168B134
:101D2000A9B1A9B1AAB969B1EBB133E473E4B4DCE8
:101D300015D5D8E51CFF3CFF1CF71CF71CEF1CEF6A
:101D4000FCEEFCEEFBEEFCF652B411BCF1BBD1BBD9
:101D50004FAB89A1CAA14CAAADB24FBB90C3B0C3CF
:101D600070C350C350C350CB50CB30CB30CB30CBF3
:101D700030CB30CB30CB30CB10CB0FCB0FCBEFCA2F
:101D8000EFC20FCB0FCBEFC2EFC2EFC2CEC2CEC2BB
:101D9000CEC2CEC2CEC2AEC2AEC2AEC2AEC2AEBA6B
:101DA000AEBAAEBAADB2ADC2CDB210835453B83BE9
:101DB000DA43DA43F93B955BCF8AEDBA0EAB2FA33A
:101DC0002EAB4FAB6FB38FB3B0B3F1B311BC32C412
:101DD00032C432CC33D4F2CB90C32EBBADBACAA935
:101DE00089A989A989A9A9A1A9A168A189A1CAB11B
:101DF000AAB1AAB98AB9A9B1A9B1AAB1AAB169A966
:101E000068A168A168A189A9A9A989A968A9A9B196
:101E1000CAB189B1A9B1CAB989B9A9B9A9B189B1F8
:101E200089B9A9B1AAB1CAA913E474DCB4DC15D587
:101E300019E63DFF3DFF1CF71CEF1CEF1CEFFCEE0D
:101E4000FCEEDCEEDBEEDCEEF8D5D0A3B1B3B1B343
:101E5000B1C3E8A849B9A6A0E7A048A148A1AAB182
:101E6000EEC250D390D370C370C330CB2FCB4FC3CF
:101E70002FCB2FD32FCB2FCB0EC32FCB0FC30FC303
:101E80000FCB0FCBEFC2EFCAEFC2CFCACEC2CEC2CA
:101E9000CEC2CEC2AEC2CEC2CEC2AECAAECA8ECA4A
:101EA000AEC2AEC2ADC2CEBACF8AF362984BD93BB6
:101EB000B93B9B431934D643F1728EAACCAA0DAB21
:101EC000EEAA0EAB2FAB6FB38FB3B0BBD0B3F1B3F1
:101ED00012BC32CC32CC53D4F1CB90CB2EC38DBAC2
:101EE000CAA989A189A189A189A169A169A1CAB148
:101EF000A9B189B98AB9A9B1A9B1CAB189A969A990
:101F0000A9B1A9B1A9B1A9B1AAB1A9B169A968A991
:101F1000CAB1A9A989A9AAB9AAB9AAB988B1A9B106
:101F200089B989B1EAA9F2DB94DCD5DCF5D419E6EC
:101F30005EFF1DF71CEF1CEF1CEF1CEFFCEEFCEE30
:101F4000FBEEFBEEBCF6BBE6FCEE97CDF6CC33BC6D
:101F5000F1AB0781E8B8E8D8A6B8E6A8C6A866B08D
:101F6000E8B049B10BBA2FCB90CB50CB4FCB6EC35F
:101F70002FCB30CB2FC32FC32ECB2FCB30D36CBA6C
:101F80008CBAEECA0FCBEFC2EFCAEFCACECACFCA25
:101F9000CECAAECAAECACEC2CEC2AECAAECAAEC239
:101FA000AEC2AEC2CEAA117B974B9943794B9843F0
:101FB00099437A4BB743B453D272B0A2ADA2ECAA04
:101FC0000CAB2DAB2EA34EA36FAB6FABB0ABD0ABB6
:101FD000F1B311BC32C432CC12CCF1CB90C30EBBE6
:101FE0008CB2CAA189A189A989A189A168A1AAB134
:101FF000AAB1A9B989B989B1CAB189A969A9AAB18E
:10200000A9B1A9B1A9B1A9B1A9B1AAB1AAB148A967
:1020100089A9CAB189A989B1AAB9AAB988B1A9B946
:10202000A9B1CAA9D1DB74E4D4DC15D5D8E53DFF4C
:102030003DFF1DF73DEFFCEE1CEFFCEEFBEEFBEE73
:10204000DBEEDBEEBBEEDBE6FCEE5AE636C5BFFFB1
:102050001CE7F8D58CAAA7B029C9A6A8A5A007B9DE
:1020600009D9E8D0E7B8C6A02BBA90D34FCB2FCB75
:1020700050CB30CB10CB30D3F0D22CC289B168B169
:102080008590CDCAEECA0FC3EFC2EFCACEC2CFCA87
:10209000CECAAECAAEC2AECAAECACEC2CEC2EEBA08
:1020A000CDBACEBAD17A984BDB23B9337653784B7D
:1020B000984B33638F7A8EA2AEBA8CB2ECAACBA2C5
:1020C000CBAAECAA0DAB0EA32EAB4EAB6FB390B365
:1020D000B0BBD1BBF1BB32C453CC12D4D1CB70C393
:1020E000EEC26CBAA9A189A989A189A148A1A9B107
:1020F000AAB1A9B1A9B9A9B1A9B168A1A9B1AAB94F
:10210000A9B1A9B1A9B189B189B189B1AAB1A9B15E
:1021100048A1A9A9A9B189A9AAB9AAB968B1C9B19F
:1021200089A170D394E4D4DC15D5D8DD3DFF1CF72C
:102130001CF73DEFFCEEFCEEFCEEFBEEDBEEFBEE07
:10214000DBEEDBEEDBE6DBE6BBF6BCFEF1B3B3B405
:102150009EFF7EFFDFFFB8E528A904B0A6B0A5A0CA
:10216000A7C8E8D008D108C985A00AB270D32FD378
:102170004FCB50CB0FD3CBC129B9C7B885B028C13D
:10218000A5A888B1EECA0FC3EEC2EFCACECAEECA86
:10219000CEC2CEC2AEC28ECAAECACEC2CEC2CDC230
:1021A000ADCAAECAD09A3463B93BD93BB843994360
:1021B0007843317310B38DC2CDAA2E9BCE8AAE9ACE
:1021C000CF9ACF9ACFA2CFAAEFB2EFBA2EB34EB327
:1021D0008FBBB0BBD0BBF1C312C432CC12CCD1CBBD
:1021E0004FC3EEC24CB2A9A189A189A148A1A9A956
:1021F000AAB1A9B1A9B1CAB168A968A9AAB1AAB17D
:10220000A9B1A9B1A9B1A9B1A9B1A9B1A9B1A9B1FE
:1022100089A968A1C9B189A9A9B189B189B1A9A1BF
:102220000EC373E4D4D415D597D53DFF1CF71CF726
:102230003CEF1CEF1CEFFCEEFCEEDBEEDBEEDBEE2E
:10224000DBEEBBEEFBE6DBEE39EEF2CB91CB70BB07
:1022500056DD5EFF7EEFBEF7DCFE89A9E7C008C948
:1022600085B0C6B028C9E7C865B0C698CECA2FC326
:102270004EBB4ECBA59808C908C908C908D185B876
:1022800085B027B1EED2EEC20FC30FC3EEC2EECAC5
:10229000EEC2CEC2CEC2AFCAAEC2ADC2ADC2ADCA30
:1022A0008ED26ED2AECACEB21183B753DA33BA33FE
:1022B0009943364B725A305AD14275431653735272
:1022C0003463346B1373F17AD08ACF9A4FA36FA320
:1022D0006FAB90B3AFBBD0BBF0C331CC32CC12CC20
:1022E000B1CB2FC3CEC22BAA89A1AAA969A189A962
:1022F000CAB1A9B1AAB189A968A9AAB1AAB18AB17A
:1023000089B989B989B989B989B989B9A9B9A9B185
:10231000CAB188A988A1A9A989A9A9B189A18CBA9A
:1023200073E4B4DC35DD56D5FCF65DFF3CF73DF7D4
:102330001CEF1CEFFCEEFCEEFBEEDBEEDBEEDBEE6F
:102340009BEEDBEEFCFEB7E5D0B3B1CB91DBB1D3B6
:102350002FB37EFF5EFF3DF7BEF75AF608B1A8E047
:1023600007C1A5A006B165B8C7C0E7B0CEBA78E589
:10237000B4CC888964A065B807C907C907C9E7C88C
:1023800065B0C6A8CAB12FCBEFC20FC3EFC2EFC270
:10239000CFC2CEC2CEC2CFC2CEC2ADCAADCA8ECA25
:1023A000AFC2F0CA0FC3CEB2ED71AE29973BD9438D
:1023B000984BB8538E29103A712A9222154B5232FB
:1023C000B322763B75431343F14AF0521163527BBB
:1023D000928B9193D1ABD0B3D0BBF1BB32C432CC92
:1023E00012D491CB0FC3ADBAEAA989A189A168A182
:1023F000CAB1CAB1A9B148A189B1AAB9AAB98AB961
:1024000089B989B989B989B989B989B989B9A9B1A4
:10241000A9B1A9A968A1A9A989A948A10AAA53ECA7
:1024200073DCF4DC35D57AF65DFF3CF71CEFFCEE8F
:102430001CEFFCEEFCF6DBEEDBEEDBEEBBEEDCEEE7
:10244000DBEEFCF6F5E48FBBD1C3D1D391D391D3AE
:1024500090C3D7D55EFF5EFF5EEFDFFF8AA1C9D0D4
:10246000E8D828B9A5A885B808D128B9AA897AB525
:10247000FBD52769A7A845B885A8E6B048C985B89F
:10248000C7C0C6B028A1EFCA0FCB0FC3EFC2EFC2BF
:10249000EFC2CEC2CEC2CFC2AECA8DCAADCA0FBBCA
:1024A00010A38E7A0C4ACF39114251420E32F33AC0
:1024B000B84BD74B30322D29B0391142EF312F3A7A
:1024C000103A313272327332933AB33A143B554375
:1024D000955BD47B928B91A3D1B3F1BBF1BB32CC92
:1024E00012D4D2D370CB0FC38DBAEAA9A9A168A127
:1024F000CAB1A9B148A989A9C9B189B98AB9AAB982
:10250000A9B1A9B1A9B1A9B1A9B1A9B1A9B989B90B
:1025100089B9C9B1A9A948A1A9A9A9A1B1D374E44C
:10252000D4DC15D539EE5DFF3CF73CEF1CEF1CEF1A
:102530001CEFFBEEDBEEFCE6FCE6DBE6DBEEBBF6DF
:102540009BFEF5D490CBB1D3B0CBCFCBAEC3D1CB28
:1025500071BBF7C49FFF3CEF7DF79FFF6899E8C808
:10256000C8E008B1A580A690C7B048C1E6784F730F
:1025700077BD7BE6F9ED0EB3E6888488C5A065A833
:1025800008D129C986980FCB0EC3EFCAD0CACFCACB
:10259000EEC2EEC2CFC2AECAAECAAFC2F1B2908234
:1025A0007052703250325232322ACF298D310B2183
:1025B0008E31144BD34A2D210D19D021932AB432D8
:1025C000943A7232512A7232933A1653F8533A546B
:1025D000F9533A5C5864357CB293B1BBF1BB31B46A
:1025E00052C412D4D1D390C3CEC24CB2A9A948A12F
:1025F000AAB189A968A1A9B1A9B1A9B1AAB98AB199
:10260000A9B1A9B1A9B1A9B1A9B1A9B1A9B989B90A
:1026100089B9A9B9A9B189A94899CDC294E4B4DC12
:1026200015DD97E53DFF3CF73CF71CEFFCEE1CEF9A
:10263000FBEEFBEEFBEEDBE6DBEEDBEEBBEEDCFE09
:10264000B4CCD1BBCFB32FA376C4D7CCD5C4F7CCF1
:1026500098C4D3937FFF7DF75DFFDDFE658886C05C
:1026600008C9E7A8C69886A80490A58009825EFFDD
:10267000BFFFBFFFDEFFBFFF0A92C590A59885A8E8
:1026800008D108C108A92BAA2FC3EFC2D0CAEFCA2C
:10269000EEC2EEC2CEC2ADD2EFC2119BB16AB34A56
:1026A000564BD4327232B33A5553155352426D31B0
:1026B0000B21EB100F320C11144BD85BD84BB943E4
:1026C000D94BB84BB74B554B9332322AB332143BEC
:1026D0001A5C3A545A4C9964377CB393F3ABF2B317
:1026E00031C432CC12CCD1CB2FC3ADBA2BB269A13D
:1026F00068A968A1CAB1A9B1A9B1AAB1AAB18AB1A0
:1027000089B989B989B989B989B989B9A9B9A9B181
:1027100089B989B98AB9AAB1EAA133DCB4DC15DD7B
:1027200035D5FCFE3DFF5CF71CEF1CF7FCEEFCEE24
:10273000DBEEDBEEDBE6DBF6BAEEDCF6DCF6B5B4C0
:10274000F3A355B43ACE3CC65A8C97735563536382
:10275000946BB2839FFF5DF7BFFF91B3C79886B8B4
:1027600086A8A5A827C928C9E7A08871BFFF9FFF31
:102770007EFF9EF79DF79EFF5BFE079107B965A858
:1027800085B028C1E7A0EBA92FC30FC3EFC20EC3CA
:102790000DC3EDC2CECAEFC2F092535B9533193C24
:1027A000583B374BB753564B3122D019F121933A4E
:1027B000154BF542154BD442D0191643B84BB843CC
:1027C000B843B84378439943F9535743912A913A10
:1027D000923AF75B39543A547B64986CD483B3B320
:1027E000F1C331C431CCD2D391CBEEBA8DBACAA9E0
:1027F00068A1AAB1AAB1A9B1A9B1AAB1AAB18AB175
:10280000A9B989B9A9B989B189B1A9B1A9B1A9B140
:10281000A9B989C18AB989A9F1D373D4F5D436DDB0
:102820005AEE5DFF3CF73CEF1CEFFCEEFCEEFCEEDD
:10283000FCEEDCE6DCE6FDEEFDEE1FEFDBC5D9A429
:10284000388C598CF76BB663755BB9841DAE3DAEA1
:102850005EAE99BD7FFF9EFF9BE6F2AB0C9A07A18F
:10286000A6B0A5A8C5B046B988A11AEE9FFF7EFF05
:102870009EFF9EF7BEF79EFFFDF62CB265A807C12E
:10288000A6B085A0E698A9A12FD3EFC2EFC2EEC2F1
:10289000EDCAEECAEFC2128B546BD84B1A34D9333F
:1028A000B94B3753722A72225643D84B573BB84B19
:1028B000B84B5743984BB84BB85373227322D84B3D
:1028C000B743B8439A43BA43B93BF843F84B35434F
:1028D0007132D23AD7535A5C5C54BB549974F49316
:1028E000D2B311C411CC12CCF1CB90C3EEBA4BB21F
:1028F00089A1AAB1AAB1A9B1A9B1AAB1AAB18AB153
:10290000A9B9A9B9AAB9A9B1CAB9CAB1A9B1CAB173
:10291000AAB9AAB989B18DBA94E4B4D435D597DDF2
:102920003DFF3DF73CEF1CEFFCEE1CEFFCEEFCE640
:10293000FCE63DEF7EEF7FE79FE79BA5B56BB663B7
:10294000F86BD95B7963D7737FEFDEEFDFEF9CC65F
:102950005CBE1BCE9FFF59D69BD6DDE6FDFE36DD65
:102960008999E6A064A044986889FFFF7FF79EFFDD
:102970007EFFBEFF3CEFFFFF5FFFAEB245A028C168
:1029800028C9C6B08598E6880FD3EFCAEFCAEED241
:10299000CECA10BBF19AB753F94BDA4BDA4BB94BAD
:1029A000564B302A573BB84BB84B573B9843B9432B
:1029B000D943573B9843B943B943B94B373BF1111E
:1029C000D74BB84B9943BA43B93BD943B93B1B4C9E
:1029D0007643512AB23AD75B7A647B5CBA5CD8748E
:1029E0001494B2BBF2CB51C412CCD1CB4FC3ADBA0D
:1029F000EAA989A9AAB9A9B1A9B1AAB1AAB18AB10A
:102A000089B9AAB9A9B168A968A189A989A989B10F
:102A1000A9B1CAA9EAA153E4B4DC16DD16D5BBF608
:102A20003DFF3CEF1CEF1CEF1CEFFCE6FCE65EEF0D
:102A30009FF79FEF7FEF3EDFD9ADF373357CD57302
:102A4000F66BD66315631FEF5CF79BFF3CEF19CE67
:102A50003AC6BFFF19D67ADE5EEF9FF75EF7BEFF7C
:102A6000BFFFF6DC8AA1257870ABDFFFBFEF7EFFEA
:102A70009EFFDBEE00008B62DACD8DA2859028C12F
:102A8000E8D008D1E7B0C6900FD3EFCA0FCBCECABB
:102A900010CB3293F6737B4C7B4C3A5C1A64774BC9
:102AA000B332D74BD94BB84398437743B943B93B7B
:102AB000B83BF532D94B983BB9439843B94B774B68
:102AC0006E11764BB74BB84B9843DA43DA43993BD8
:102AD000394CB64B723A9342185C7A649A5CFA6449
:102AE000F984F49312BC11C412D4F1CBB0CB0EBB59
:102AF0006CB289A9AAB1A9B1A9B1AAB1AAB18AB186
:102B0000AAB9A9B1CAB189A9489988A168A148A957
:102B100048A168910EBB94DCB4DC15DDF8ED3DFFF7
:102B20001CF71CEF1CEFFCF6FCEE3DE79EF79EEF5A
:102B30009FEF5EDF1DD75DEF5DEFBFFF9FFF9FFF44
:102B4000DEE63CCEB9B59EF77CF7FDF6DBCD3BCE9D
:102B5000BCD67AD61CF77DFF5EFF5EF75EF75DF7A9
:102B60007DF79FFFDEFE8D721294DFFF9EFF9EFFBA
:102B7000BFFFD3B4A3284318AE6A70ABC688E7B0D2
:102B8000E8D8E8D828C168A10ECB2FC30FC30FCB5C
:102B9000F0B2D583FA54BB54BA5C9964385CB32262
:102BA000F84BFA43D943FA4BD52AB84BB843D9432B
:102BB000D943B74BD52AD943B93B99439843985346
:102BC000D44A2D11344B964BD84B9943994BD94B42
:102BD000F843F953775352329643595C7A64BB6495
:102BE0001B6DF77CF29BB0D312D412D4D1CB4FC360
:102BF000CDBA0AB2A9A9A9B1A9B1A9B1AAB18AB19C
:102C0000A9B9A9B1A9B1CAB189A988A1C9A9AAB903
:102C1000CAA90AA232DC73DCF5DC35D5FCF63DFF2F
:102C20001CF71DF71CEF1CEF5EEFDFF7BFF77EEF21
:102C3000FCDE5EEFDFFF9EFF5DF77DFF5DF75DF77A
:102C40007EFF7EFF7EFF5DF75DF73DF7BCE6FCEEA5
:102C50009BDEBCD65BC6BCD6BCCE9FF77FFF3EFFDB
:102C60007CF75DF77FFF5FFFB5A45BDEBFFF9EF7DC
:102C7000FEFFB2B463280731BAD52BAA64A0E7C01F
:102C8000C8D009D108B18DCA2FCB0EC3CECAD0C2CD
:102C900073833A6D1B6DDA64FA5CBA6C3132184C8E
:102CA0007944F953F94BB43A7743F93BB94BB94BF3
:102CB000F843B84B1633B94B9943B943B9439A43D8
:102CC000BA432E42C8702B811363F943FA3BD943B0
:102CD000BB539A4BFA4B964B5032395C7A64BB6CBF
:102CE0001B653A757594B2C3D1CB13CC13D491CB79
:102CF0000EBB6CB2CAB18AB9AAB1AAB1AAB1AAB1C3
:102D000089B989B9A9B1A9B1CAB1C9A948A18AB972
:102D1000A9A14FC394E4D5E435DD39E65DFF1CF786
:102D20001DF71CEFFCE69EFFFFFFBFF79EF71DE7B8
:102D3000BFFFFFFF9EFF5DF75DF75DF75DF77EF775
:102D40005DF75DF75DF75DF75DF75DF77EFF5DF7BA
:102D50007EFF7FF73EE7FDD61ABED49C9BDE9FFF29
:102D60007DF75DF75EFF5EFFBFFF16ADBDEE9FFF17
:102D7000FEFF91A4421837B539E508A1C6C045B099
:102D800008C908B9EBB94FCB0FC3EEC20FC331A3CB
:102D900098845C653C653B6D1B6DD3329753DB6457
:102DA0007A4C3A54184CD121195CF93BBA4BB94BC7
:102DB000D843F94BF532F94BB94BD94BD943DA43E8
:102DC000B85BCB6127A929B90A71F46AF853D943D2
:102DD000BA53DA53B743333BD78C1553DC741B65B6
:102DE0001B5DFB74F98C5484F2C3F2CBF3D3D2CBCA
:102DF0004FC3CDBA0BBAAAB9AAB1AAB1AAB1AAB1A6
:102E000089B9A9B1A9B1A9B1A9B1A9B1A9A948A97B
:102E1000EAA194E4B4DCF5DC76DDFCFE5DF73DF779
:102E20003DEFDBE69EFFFFFFBFFF9EEF1DE7DFFFED
:102E3000DFFFBFFF7EF77EF75EF75EEF7EEF1CE7FA
:102E40007AD6FCE65DF75DF75DF75DF75DF75DF758
:102E50005DF75DF75EF77EF77FEF5EEFD8C5D9C50A
:102E60005FEF7EFF5DF75CF75DF77FFFB5B4DEFED9
:102E7000FFFF939CD183B9CDB3BB09B928D1E8B882
:102E80004598AAB14FD34FC32FBB0FCB10B3F483D8
:102E90001A753D6D7E655B6DD75B722AFB64BB5C0A
:102EA0007B5C7A4C143B933A1A543A44FA4BFA53EB
:102EB0001A4CF94BB8433633F94BFA4B1A4CF94BD1
:102EC000F372E78883A884B888B06C91956BF84B4F
:102ED00019543A54595C4F22FFF7124B98643A6DDB
:102EE0007D7D3964FB84D87412B4D2CB12D4F1CB7B
:102EF00090C3EEC24CBAEBB9AAB1AAB1AAB18AB9D1
:102F0000A9B9A9B1A9B1A9B1A9B1A9B1AAB169A138
:102F10000EC393D4F4D436DD19EE5DFF5DF73DF7B3
:102F2000FCE6BEF7FFFFBFFFBFFF3DE7BFF7DFFFD8
:102F3000DFFF7EF75DF75EF75EF79FF77ACEDCDEA8
:102F40007EF77EF75DF75DF75DF75DF75DF75DF79F
:102F50005DF75DFF7EFF3DF77FF77EF77EF7DDE6ED
:102F600078B53EF79DF77CF73CF77EFF1EF7539C44
:102F70007AD6DADD39C5BACD8E820899C7B0C7983E
:102F80004CBA70D30EC30FC30EC3EECAF2BBDA9DA8
:102F9000FA641C753C659C7DCF29596C5C5DBB5CFB
:102FA0009B649A5CAE21B7533A4C3A4C3A543A542B
:102FB0003B4C3A4CF94BF52A3A5C5A5C5B4C7A6CC8
:102FC0004B7909C946C963B805C0A7A032737122FD
:102FD0001854194CF7534E32FFFF7CCECF62D48B7E
:102FE000588C386C9A741B8DD293B1CB11D431C4E8
:102FF000D1CB50CBADBA0BBAAAB1AAB1AAB98AB992
:10300000A9B1A9B1A9B1A9B1A9B1A9B1A9B10BB28D
:1030100033DCB3CC15D556DDB7E519E67AE6BBEE61
:103020003DEFFFFFFFFFFFFF5DEF9EF7DFFFDFFFDD
:103030009EFF5DF75DF77EF75EF739CE5DEF7EEFC1
:103040007EF73DEF3DF75DF75DF75DF75DF75DF707
:103050005DF75DFF9ADE7EFF3EF75EF77EF77EF757
:103060007FF736AD3DEF9EF75DF73DF77FF7DCD696
:103070005394F9D47CDD158C58B5287968A1EEC23B
:1030800070CB2FCB0FCBEFD22FD3CDBA9BF6FA95C7
:10309000F9641C7D3B75944BB2425D851B5DFB64FE
:1030A000BA747553CD3979647B545A54795C7A5427
:1030B0005B547A4C7A5CF43259647A649B5C176C8A
:1030C000EA90C9D806C1A5A8E8D8A6A8CC610F3A4D
:1030D0001764CF11F3524E6271A34C9A09A18CC1AF
:1030E0004F8A197D16443B857584B2BBF0D351BC21
:1030F00012CC50D30EBB4BBAEAB1AAB18AB98AB985
:10310000A9B1A9B1A9B1A9B1A9B189B989B1EEC2D1
:10311000B4E4F4D436DD57E556DD56DD35CDF4BCE8
:103120005DF7BEF7FFFF9EF75DEFFFFFDFFFBFFF1D
:103130005DF75DF75DFF7EF7D8C5BFFF7EF75DEFFA
:103140009EF759D67EFF5DF75DF75DF75DF75DF79A
:103150005DF75DF75EF736B59FFF5EF77DF75DF7CC
:103160005DF75EEF36AD9FF75EF75DFF7EF79FEF91
:1031700037A51ABD59A494635AAD51AB70D350C34F
:1031800030C32FCB2FCB0FCB0FC312BCFFFF9FD76A
:1031900099649A645C858D1958643C75DA5CFA64AC
:1031A000F97CAD41527BD964BC549B64B95CBA5480
:1031B0007B5C9B547A5CB653F33ADA74BA5CD56B99
:1031C000468067C0A5B048B129D108C9AA894B4932
:1031D00032636C31EE692981E68808B92AE14BD95E
:1031E000CC891885B4333B6D3A7D72ABF0CB54CDAE
:1031F000F2BB92DB4EBB8CBA0BB2AAB98AB98AB9C0
:10320000A9B1A9B1A9B189B189B989B989B112E4C2
:1032100094DC36DD56DD57E536E536E5D5CC39E6C6
:103220009EFF9EF7BEF796ADBEF7BFFFBEFFBEFF87
:103230005DF75DF77DFF38D67DF77DFF5DF79EF783
:10324000DBE6BAE65DF75DF75DF75DF75DF75DF725
:103250005DF75EF75EF77FF757B57EFF9EFF7CF761
:103260005CF79EF7BDDED69CBFFF5DF73DFF7FF7A5
:10327000DDCE367CB663F763FAA4F7E4EFC250CB39
:1032800030CB30CB4FC34FC351BB3BDE1785376CC0
:10329000BB647D6D3343CE293B6D99541D96985C7C
:1032A000156C907A96A4D9641C5DFB6C396D1B6516
:1032B000DC64DB647964DA744F2A786CBA64D46BAA
:1032C0002689E7B885A885A0A7C086C849A9C76090
:1032D00008494A518B8949B1A5B885B028C169B15F
:1032E0004971778C344B39645B7515B46EB399E6CC
:1032F000B5D492DBAFCBCDC24CBACAB18AB98AB9C8
:1033000089B9A9B1AAB189B98AB989A96CB293DC82
:1033100095E416ED76ED95DD56DD36D5B4B4BFFFF8
:103320005EFF9EF7BBD6BBD69EF77DF77DF75CF7B9
:103330007DF75DF7BADEFCE65DFF5DFF5EF79FF7A8
:10334000D8BD9EFF5DF75DF75DF75DF75DF75DF753
:103350005DF75CFF5DF77EF71DE7F9C59FFF7DF721
:103360007CF73EFF5FFF99B598AD7EFF5CFF9FF74E
:103370009FCE7DB6B463B96B9A8CB5C40FCB0FDB0F
:103380000FCB30D30FD38FBB727B1343973B3A44A1
:10339000D93B185C6D19D3429B7D354CFFDF775CC0
:1033A000106310BBD7AC78741C653D651C6D1B6D3C
:1033B0001C6D1C6D1C65796C3AA591523C75F56BC2
:1033C000478906B185C007C986A08590A578488938
:1033D0000CB2AA914B928989C8A06AC9C6C006A935
:1033E000C990367C943BB65BB77418D54FAB7CF76D
:1033F000BAEED1C391CB0FC36CBAEBB98AB18AB91B
:1034000089B9A9B1A9B18AB9AAB989A970D393DC3C
:10341000D5E437ED76E575DD76DDB4BC7BE67EFF81
:103420009EF79EF7D8BD9FF77EF77DFF7DF75DFF86
:103430005DF7BEFFD8C5BFFF5DF75DFF5EF77FEFAD
:1034400039CE7DFF5DF75DF75DF75DF75DF75DF701
:103450005DF75DF75DF75DF77EFFF5A49CD69FF7FE
:103460005CF75EFF5FFF7FEF53843EEF5DFF9EF7EB
:10347000BED65CB67A9D976B588457D52FC350CB78
:103480006FBB4FCB30DB11B3967B52321954362BC6
:10349000D84B76536E2116437964B86C5DB615949B
:1034A0004FAB51E457C5D784FA64FA5C1B6D3B6D92
:1034B0003B653C6D1C55355CDCF64B72376C197402
:1034C0004C798878E8882FB33AEE19DE59DEFCFE95
:1034D000FDFE3CF75CF75DFF6CA248B189D127B1D6
:1034E000C988F67B75431453197DDEF60F9BDEFF0A
:1034F000DFFF53C4D1CB4FCB8DBA0BBAAAB98AB177
:10350000A9B9A9B1A9B1AAB9AAB9CAA953E4B3DCA6
:1035100016E557E576E576DD77DDD4B49FFF9FF7B6
:103520009FF7FCDE7AD67EFF7EF77EFF7DF75DF7A4
:103530007DFF9ADE7AD67EF75DFF5DFF7EF7DDDEEA
:103540001DE75DFF5DF75DF75DF75DF75DF75DF723
:103550005DF77DF75DF75CFF5DFF5EF7516B3FE761
:103560007EF75DF75DF7DFF79BCE548CBFFF7DF7ED
:10357000BCD67CC6BECE7884F5731DFF2EBB51C36E
:103580006FBB4ECB51CB3593D54A7332D432774390
:10359000D853933A1132B4329753B64BF763B27A99
:1035A0001DF6F6BC56CD3BBE775C995C1B751B6D5A
:1035B0003A653B65DA4C587DFFFF71CCD06ABB742D
:1035C000BA74345B6B3154941EF75FFF9FFF9EF714
:1035D0009EF7BDEFFEF79AEECD9A859007C907B921
:1035E0008CA134735653734A1B755DD6F29BFFFF53
:1035F000FFFFB8E5B0C390CBCEBA2CBACAB9AAB90E
:10360000A9B9A9B1AAB18AB98AB16CBA94E4B4DCF7
:1036100036E577E556E576DD16C5FACD9FF77FEFFF
:103620009FEF15A5DFFF9EFF5DF77DF79EFF9EFFD5
:103630009EFF76B5FCDE9FFF7EFF5DFF9FF7BCCE51
:103640007EEF5DFF5DFF5DF75DF75DF75DF75DF7B1
:103650005DF75DEF5DF75CFF3CFFBFFF558C157CB0
:103660007FF79EF77CF77DEF7FEFB78CDAB57EFFB3
:103670003DEF5EEF7FEFBDD6F47BDCEECDAA31D31C
:1036800030CB6FCB72AB364BB42A73325543143BFD
:10369000185C512AB33A1443D44235433443F4728C
:1036A0003473724BED8ADFFF5EA6F84B9A64DB64DD
:1036B000FB641B75DD8D5FC73CBE17B5109BF59392
:1036C000D743553B502A94845DEF3DF756BD9FFF8D
:1036D0009EFF58CE7AD6F9E535C4C8A0A6C0A6B8D4
:1036E0008B910F4A755B0F3ADA6CD56B57B5FFFFBC
:1036F000FFFF5DFFD0BBD1CB0FC34CBAEBB9AAB172
:10370000A9B9A9B1A9B1AAB969A970D394DCD5E4C2
:1037100057DD77DD76E576DD16BD9CD69FEF9FEF12
:103720007CCEB8B59FF77EF77EF77EFF1CEF108C3E
:10373000FFFFF59C5FE7D8BD729CBEFF9EF75BC69E
:103740003EEF5DFF5DFF5DF75DF75DF75DF75DF7F0
:103750005DF75DF75DF75CF75DFF5EFFBDE60C5260
:1037600058B59FF77DF77DF79FFFDFCE9263BFFFD0
:103770007DF75EF75EF7DFFFD69C5BD64FABF0DAE6
:1037800031D372B3537B132BF33A1353CF19143B3A
:10379000185CEF21144B3453B252546BCF6A77D577
:1037A00076D574BDB1ABF16A554B7743B853F95335
:1037B000F94B185CB5633443F52AF44A93ABB3BBB9
:1037C000356BD552513AF2733CE7DDF7718CBFFF90
:1037D0009EFF79D6BBE65BE618C5C868E8986AB96B
:1037E0006A690E429142B042385C3564DCDEFFFF0C
:1037F000FFFFFFFFB3C4D1CB4FC38DBA0BBAAAB141
:10380000A9B1A9B1A9B189B1A9B132DCB4DCF5E49F
:1038100077DDF8E597E556DD57BD1EDF9FEFBFEF7B
:10382000F6941EDF7EEF7DF79EFF7EFF7EFF76B56E
:10383000CC62D9BD7CC66F739FFF9EF77EEF19B631
:103840005FEF5EFF5DF75DF75DF75DF75DF75DF7D5
:103850005DF75DFF5DF75DF77EF75EFF7EFF0E8330
:10386000727B1EE77EF73DFFFDEEDDCE967CDAC56E
:103870009DFF5EFF3EFF7CFF3EF7BABD54C430DBC8
:1038800092B3746B76635463B48BCD41CE29354BC0
:1038900076539242F362B06A748BD192F1BB18FFF7
:1038A000D6FED9FED3B36F5A1443974B764B974B42
:1038B000B743964B565B5653D8531443F36AD07AAA
:1038C0005273145B93523073FCF69EFFBEF7BEF743
:1038D0009DF7BEFF5EFFDAC5FBBD53632F6AEE9115
:1038E0003263513A9242B14AB653D774FFFF9FFFF9
:1038F000FFFFFFFFD8DD11CC90CBADBA2BBAAAB930
:10390000A9B1A9B1AAB989B14CBA53DCF4DC16E566
:1039100077D5DBF6D8ED15D51ACEDDCEBFEFDED6E6
:103920003484BFF7BCCE7EEF7DF75DF7DCE63DF774
:1039300056ADB073127CDCDEDCEEDCE63DDFF9B5C3
:103940009FF73EFF5DFF5DFF5DFF5DFF5DFF5DFF7C
:103950005EFF5DFF5EF77EF77EF75DFF5DFF32B4D1
:10396000118337ADBFFF9FFFD9CDDDC61885726BC0
:10397000FFFF3EFF7EFF5BF77EFF5CD634BC4FC38C
:10398000308BD563767354AB93AB6A499152D34273
:10399000F44AF3625383109B72B3D1AA98F51AF7D5
:1039A0003AEF9BFED9EDCF6A545B965B7653B653E4
:1039B000F75BD753D86B976B746B946B5563F26A54
:1039C00055AC96839162AE721DFF1DF73DF7FCEE7C
:1039D0009BEEFAE599D5DBCDD88C7854796C96833B
:1039E000375C7232D44AF352745B9CB6FFFFBFFF60
:1039F000DEF7FFF73DFFD1C3D1D30ECB4CBAEAB10E
:103A0000A9B1A9B98AB989B1EEC294DC15DD56E530
:103A100056D5BEFF97ED15D51ABEDDCE9EE7BBADE0
:103A2000B7A4DFFF9B95FECEBFFFBBE619D6DDE650
:103A3000BCE63DEF3DEF3CE7BCE65BDEFECEB48C82
:103A40005FFF5EF75DF75DFF5DFF5DF75DFF5DFFAB
:103A50003CF75EF73DF75DFF7DF75DEFDFFF12ACF2
:103A600070C3128C5ED71DDF98BD599D9864D563D5
:103A7000FEEEDCF63ACEBFF75DF75DFF32B42FA362
:103A800071BB31C371D370D3329BEF49B24A134B30
:103A9000F252D172D08A71B371C30EB3D4DC96E501
:103AA00095DD38F6FAFE12B4328BB262956BD56BA7
:103AB000B46BB67BD683B683B58B5383738B11936C
:103AC00072B3FFFE70A3EE92509BCF826E7A8F6A24
:103AD000F1622E42ED316B19F65B9B649B5CBB5C23
:103AE0005964B2423353F24AB26BFFFFDFFFDFFF8C
:103AF000DEFFDFFFDFFF53CCF2D32FCB8CBA0BB24C
:103B0000A9B1A9B18AB98AA9B1DB94DC15D556E56A
:103B1000B8DDFFFF97E5F6CCFED69DC69FDF199571
:103B200099B5BFF719851895BFFFDCE6BBE65EF7D0
:103B3000DFFF7EFFDEFF3CE73DF77CE63ABE949474
:103B40003BDE9EFF7EF77EF77EF77EF73DEF9BDE46
:103B50007EF77EF7BBEE1CF79EF7FCD67FEF74ACCA
:103B6000B5E430837DCE1ED7BDD6AE629FCE977CA6
:103B7000FACDBFFF97ADF9B5BFFF5EFF38E6F1B3F1
:103B800090BBB1CB70CB8FD31183714A555B14536B
:103B9000D25A32834E82B4DC4FBB0FB392BB13BCFC
:103BA00075C4F6DC55DD3BF6F092738BB06AB58BCD
:103BB000B593B493D49BD49BD4A3B3A3D08AD2ABF4
:103BC0000E93B4CCBCFE2EA371B372BB2D82B07227
:103BD000714A965B1864B22A18549B5CBB5CDB5C30
:103BE000BB6CB3421353D142B8ADFFFFBFF7DEFF4A
:103BF000BEFFDEFFFFFFF5D412D42FCBADC22BB238
:103C0000A9B1A9B189B1CAB113E4B4DC35D577DD66
:103C10007BEEFFFFB8DD73B4FECE1CAEDFC6B8840A
:103C2000DDDE7FE7198578841BCE35AD3DEF56B5D7
:103C3000B3A4DFFFDEFFCE7B9BE67BE6F9C574A471
:103C400078D59FFF7EF77EF77EF79FFFBBDE7EF77E
:103C50001DEFFCEEFCF6DCE67EEF3EDFBDD63294D7
:103C600039FE96BCF8AC9EC63BBE919BF7BCBEC667
:103C7000F6A4DFFFBCC67CBE557CBDD6BFFF56D5C3
:103C80006FBBB0D3B0D390D33373B242965B38746A
:103C900091523393ED8176ED94DCCC890E82CD7117
:103CA0002D7AAE9274C458E574CC70A3309B12A3E5
:103CB00054B3D4B3D4B3F4BB92B372AB93B310A3E5
:103CC000B1AB2E9B16E598F550BBB2CBEFB2329B51
:103CD000756B9C6CBC647A5CB643FB64DB5CDB5C40
:103CE000FC6CD3423353935BDFF7DFF7FFFF9DF7A5
:103CF000BEFFBEFFDFFFF9EDF2CB70D3CDC24CBAF1
:103D0000A9B9A9B1A9B10BB274E4B4D456DD56DD9A
:103D1000FCF6FFFFB8DD74B4DDC6FBADBCA5F98CC5
:103D2000FDDE5EE739857CA56D5A56B5FCE61DEFD4
:103D30007EFF7EFF9EFFFFFF5EFF1ADE7BDEB19BF4
:103D400095C4DFFF7DF77DFF5DFF9EFFDBE61CEF87
:103D50005DFF7EFFBBE67FF71DD71ECF78ADB18339
:103D600014D5D6CC72931CC6D9BD53C490AB9CD687
:103D7000F6AC9FF7FDD69DBE7AA5F373FAC55BEE50
:103D800094E470CBB1D391CBF77B5643F85B597475
:103D9000F362F3920E8A38E56E8A4F82739B5DEE72
:103DA0008D7A89694D8A70AB15E572CCB0B310BBC2
:103DB00032C372BBF4CB14CCB3C3F5CB53B3B1A2B3
:103DC000719232ABCFA2D6E453D42EB3F1D330A349
:103DD0007994BC6CFC64FB6C9964DA64FB5CFB5CFE
:103DE0001C75B23AF14A1FCFDFF7BEF7BEF7BEFF30
:103DF000BEFFBEFFBFFFDCF6F1C3B1D3EECA4CBAC3
:103E0000A9B9AAB1A9A9ADBA73E4B4D476DD76DDB7
:103E10007EFFFFFFB7D593AC7FD79DB6DBA59B9DFB
:103E2000FDDE1DDF1CA6199D6C5AB083FDEEBFFFA1
:103E30007FF79FFF3EEF9FF71EEF9CDEB8C5D2B322
:103E400090B37DFF7DF77EFF5DFF5DFFDBE6FCEE5F
:103E50009EFF9FF77FEF1EDF7CBE98A5FBBD139CE6
:103E6000BAFEFCFEB4BC3BDE7CE653C456EDB4ACFB
:103E7000D9CD1EE73DDF1DD7DFD6D56B5ECE34AC86
:103E800090C34FCBB2CBB3BBF76BF84B7A5C3964C2
:103E90003563D382308AEE710E723ADDF4A3FFFFF0
:103EA00098D5065949690FA3D4D4FBFE31BCD1CBB8
:103EB00071CB14D430B3B1BBD2C314C4ED79308A02
:103EC000AE79EE814F8A4E8A34C417DD90C330A399
:103ED000989CDB741B6DFA6CDA6CDB64DB5CFB5C5E
:103EE000FB6CD13AF794FFF7BEEFBEF7BEF79EFF2B
:103EF000BEFF9EFFBEFF5DFF52C4D1D32FD36CBA6D
:103F0000A9B9AAB1A9A92FCB94DCF5D476DD76DDC9
:103F10009FFFDEF759EE32A43ECFFEC67CB6DBA58E
:103F2000DDDE3EEF9DB69CCE7083CD7236B5B4A477
:103F3000F5ACF6A458B579A51BC61AC678C5B1B3B9
:103F4000F2CB79E6DCDE7FEF9FF79FF7FDE65EEFD1
:103F50003EE73ED7BCCE5CBE789D5BBE559475B443
:103F60001CFF3BFF78EEF5C43BF6F1B37AFE6FA37E
:103F7000B9D5BCE63CEF1CEFDFFFD56B3AA5DADD27
:103F8000B0CBB0D3D2CBB2B3F763194C7A5C395C07
:103F9000B66B3062517A129B73AB9AEDEA6173ACE7
:103FA000AE8A0C824C8AD1B377E5DBFE1BFFD3CC03
:103FB000F0C352D419FE15E593CC2F9B96C438CD8F
:103FC00097CD53AC2851ED794F8AEF8993BB35AC2F
:103FD000988CDA6C1A65FA64FB64DB64DB64FB5C66
:103FE000FB6C5253FFF7BEEF9EEF9FF79FF77EFFEC
:103FF0007EFF9EFF9EFFBFFFB3CCD1D32FD36CBA01
:10400000A9B989B189A990D394DC15DD56DDD7E52E
:10401000BEFFFFFFDBF672A43ED7BDBEDDC6FBAD23
:104020001DDF5EE7FDCE1DDFF08B6F7BAB62ED6ABF
:10403000CE5A516B589D1BAEBECEFEE694A416DD43
:10404000F6DCF4BCBDDEB9ADFECEDDC69CBEBCC6A2
:104050007BBE7BB6BDC6BDC61BB65CCE79CDD5BC1E
:104060005CFF36E633D5B4D41BFE53C4B8ED16D589
:1040700013A4DDEE3CF75CF79FFF7AA578845CEE35
:1040800090C3D0D3B0CB13BC787CBA549B545A6441
:104090009663305210722F8279ED15D5CC8A2C7A26
:1040A000AB79D0AA0B820E9B7AF6DBF61BFFFBFEE8
:1040B000F7F551C475DD99FE17EEB8E579DDCD7AD7
:1040C000FFFFFFFFC95949610A610F8A0F82F27A27
:1040D000DA8CBA5CFA5CDB5CBB5CDC64BB64B96444
:1040E000976C5FDFBFF7BEF79EEF9FF79FF77EFFEE
:1040F0007EFF9EFF9DFFDFFF15CDB0CB4FD38DC25E
:10410000C9B189B1A9A912DCB4DCF5DC56E539E600
:10411000DFFFDFFF1CF735BDDDD6DEC65FDF7BBE10
:104120005EDF7EEFFCDEBFFF1DE75DEFF7C5B49CF1
:104130003EC698841FC7FDB6DDC69CE6D19BD8DD80
:10414000F9E574BC5BDE98ADBDBEFDBEFEBEBCB67F
:10415000DDC69CBE5BB61BB67DCE7CE657D556D57C
:1041600074CD59F6BBFED5DC70B330A338E5D2ABC5
:1041700012ACBBF63DF77DF7DEFF99B537741FEF44
:1041800090BBF2D3AFDB73CC5DBE774CBC545B6CA1
:1041900074632F4A116A5082D5CC99F615CDD3B3EA
:1041A00096DC4C9AB1BB32B4BAFE1BFF1BFF1BFF5F
:1041B0001BFFDBFE17E6B8F699F6D8E5BAE58A618B
:1041C000709BB5BC4B6ACA69696951A3F2921062CF
:1041D000F77BBA74BA5CDB645A5CBB5C1B6D5A8DAE
:1041E0007FDF9FEF9FF79FF79FEF9FEF9FF75EF7B0
:1041F0007EF77EFF7EF7BFFFD8DDF1C34FCB8DC2C8
:10420000A9B1AAB989A974EC93DCF5DC36E518E606
:10421000BFFFBEFF9EFF56BD3ABEDDC69FE7DDD69F
:10422000DCD6BFF75DEF7EFF9FFF9EFFDFFFFFFF46
:104230005BCED78CFEC6DDBEFED678C5D4BC14BD21
:1042400018DE97DDB4AC1EEF7CCEDDCEBDC6BDCE94
:10425000DAB59CCE9DCE7CCE7CDE7CEED3C472C41F
:10426000BBFE36DDF2BB2F9B309BF3A3EE8A74C4FA
:1042700053B4BBF63DFF7DFF7DFF3EE7B98C76A4CE
:10428000F6E4D2CBF0D354CC9FE75985185C996CF7
:10429000125B505A115A507234AC3CFF9FFF6D8232
:1042A000BBFD1BFE98E577DDFBFE1BF71BF71BFF35
:1042B000FBFEFBFEFAFEB8F6DAFEBBF6DDFE2C7A5C
:1042C0008F9ACB71B2B3AB79909ACD797BDD6F7257
:1042D000716A3573197C7A6C795C17545764FDC622
:1042E000DFEF3EE79FEF9FEF9FEF9FEF7EF75EF7D9
:1042F0005DF77EF77DF77EFF19DE12CC4FCBADC2A6
:10430000A9B1A9B1C9A973E4B3D4F5DC56E538E67F
:10431000DFFFBFFF9EFF19D63AC6FED6FFF71DDFAF
:1043200059CEBFFF9EFF7EFF7DFF7EFF7DF79EF78C
:104330005EE71ABEFDC6DECE79B594AC56C53CFF2D
:104340003CFF5CFF93B4F9DD7CE637B5BDDE3CD6BF
:104350001BD63BD61BD63BD69BE67AEEF3CC55DD7F
:1043600033BC50A3896948618A6199D554B41AF65F
:1043700094BC9BF65EFF5DF79DFF7EF7D894F49B9F
:10438000F5DC33C411CC54CCF7845B8D7A6C9C85FE
:104390004E4212833052516AEF7A7DFFBBF679D5D7
:1043A00050A3D5D4D0A318E6DAF63BFF3BF73BFF8A
:1043B0001BFF1CFF1BFF3AFFFAFEFBF69FFFCE928E
:1043C00097EC8EA211B36EA22E92D0927AD5328B38
:1043D000137B156B555BD65BB96C2E2ABDC6BFEF40
:1043E0007FEF5EE79FEF7FE79FEF7EEF5EEF3DF7AA
:1043F0005DF75DF75DF77EFF19E6F1C34FCBADC208
:10440000C9B9A9B12BB273E4B4D415DD36E539EEE0
:104410009EFF9EF79EFF3DFF56ADFDD6DFF77EEF78
:1044200039CEBEFF7EFF7DFF9EFF7EFF9EFF9EF783
:10443000FFFF97ADDCCE17A59DE632ACDBFE3BFF60
:104440003BFF1BFF3DFF32B43AEEFAE554AC1BE6EE
:10445000FADDFADD7BE67BE6BBEE38E679FE75DD5C
:104460008D724851EB71109B4D7A75BC37CD98DD3C
:10447000B4BC5BE67EFF9EFF7DF79EF759A575AC49
:1044800032C4F5CC52C413BC7864DC645B64FA6C4F
:10449000F05AB49B4F5A315A107B5DFFB7DDF2AB37
:1044A0002F9331B459EEFBFE1BFF3BFF1AF73BFF86
:1044B0001BFF1CFF3BFF3AFF3BFFDAF6DFFF4F9B82
:1044C000F8FCD6E4CEAA17F510A317CD19BD957B3D
:1044D000BA7CFB64DA5CB96C5774DBB57FEF7FE7BD
:1044E0007EE75DE77FE79FE79FE77EEF7EF73DF79B
:1044F0003DF73DF75DF75EFFDCFEB0C350CBADC2CC
:10450000A9B9A9B14BB293DCB3D415DD35E559EEA9
:104510009EFF9EF75DFF7EFFB7BDBBD6BFF77EF760
:10452000BBDE9EFF9EFF9EFF9EFF9EF79FFF9EF7B6
:10453000BDFF18C699BDBDEE98D576DD1BFF5BFFAC
:104540003BFFBAF659EED7E5F1B378E574BC94BCFD
:104550007BF65BEE7BEEBBEEFBF618DEDAFEF4C418
:1045600095BCAE824D8250A3CE92D6C4DDFE98D5C6
:10457000D5BCDEF63FF73ACEBEFF9EF799AD33AC21
:1045800076DDBBF6B6E590AB37641D6DB84B755361
:104590005694728B5062725AF0721CFFDAFE7BFEE8
:1045A0003DFF99F6BAFEDAFEFAFE78E63BFF3BFFE6
:1045B0003CFF1CFF1BFF1BFF3BFFDAF61BFFF4C495
:1045C000F2CB98F5B9F5F6E433B47FFF36849A74EC
:1045D000DB641B55F954D86C1FDF1EE7FDDE7EEF50
:1045E0007EE75EDF7EE77FE79EE77EE77EEF1DEFFB
:1045F0001DF71DF73DF73DF71DFFD1C34FCBADC2F2
:10460000A9B189B18CBA73DCB3CCF5DC35E538EEF1
:104610007EF77EEF5DFF3CFFBBE67ACEBFF7DFFFA4
:104620009AD69EF79EF79FFF3CE77EEF9FF77EF7B7
:104630009CFF3CF79ACD7CEED4C49AFEBAF6B5D571
:1046400054CDF7E5F7EDB7ED56E556E55AFED4C47F
:1046500092B45AF6BCF6BBEEFBF69AE6BAEE77D504
:10466000AB7110A30FA3DAF512AC56C53EFF98D577
:1046700017BD7FFF9CDE939CBFFFFFFF78ADF2A3C9
:1046800055DDFBEE37E6D4CC9473786CB65B4F52B5
:10469000148C937B5262525A317BDAF658F639F613
:1046A000BAFE57EE99F6BAFE99F617E65CFF1BFFC5
:1046B0001CFF3CFF1CFF1BFFFAF61BFFB9EE9BFE25
:1046C0004C82AE9250ABAE92DAE519CE976CFB6499
:1046D000FC64795C5B857FDF3CDFFDE61DDFFDDE92
:1046E0009FE75EDF9FE77FE79EE77EE75EEF1DEFD8
:1046F0001DF71CF73CF73DF71DFFB0BB4FCBADC21C
:10470000A9B189A9ADC253DC93D4F5DC16E539EE25
:104710003DFF7DEF3DF73DFF5EFF39CEBEFFDFFF82
:1047200039C67EFF7EFF9EFF1CEF5EEF1DDFBFF7E9
:104730007EFF3DFF78CD3AEE35D514D596E5DCFE0B
:10474000F9F5B4CCF1AB4F9BB2AB709B93C417EEB1
:10475000D6E5D3C455D5DBF6FBF679E63CFF18DE8B
:10476000F3BB55CCB6CC5FFF36C59EFF3DFF33A4EF
:1047700078C5DFFFD78CD88CBEF7BEFFB9BDD19B03
:10478000DCF69AE678EE79F6CF72535BD65B4F6A29
:10479000B2B3307393627362F0723CFFB9FE99FE5C
:1047A00079F6D9F6DAF6FAFEDAF61BFF1BFF3BF7CD
:1047B0003CFF1BFF3BFF1BFFFAF6DAFE78EE59EEDB
:1047C000FDFE7AF696DDB8E51EF717951975D964E2
:1047D000976CFCAD9FE77FE71BD73DDF1DDFBCD6A5
:1047E0003DDF5EE73EDF7EE77EDF7EE75EE7FCE6FD
:1047F000FCF6FCF61CEF1CEF5EFF6FB32FCBADC2D7
:10480000A9B1A9A9CDC233DC94DCD5DC15DD19EE44
:104810003CFF3CF71CEF3DF73DF7FBEE9DFFBFF77C
:104820001DE7FCE67EFF7EFFFDEE9EEFDBBE7EDF3A
:104830009FFF5EFFDBEE72B452BCF9F557DDF2B3B9
:1048400091AB71ABCE8A8E82F8CC17CDF8E578F6B5
:1048500037F6BAFEF7E575D558E658E63BF75CFF44
:1048600077DD37DD99E5F3B3D5BCBAEE9DFFD19383
:10487000BEEE5AC6D88458741DE7DEFFD9CD52A4C7
:104880001CFF99E65CFFD6DD74AC7463B64BB17A5D
:1048900033E4708B925A9262AE621CEFFAFEB9FE5C
:1048A000B9F6FAEEFAF6FBFE1BFF1BFF3BF75BFFC8
:1048B0005BF71BFF1AFF1AFFFAFE99F699F6F7E568
:1048C0001CFF78EEB9F6DBFE1ACEF77C3A7DF97C58
:1048D000DEC6BFE7FFF7FDD6FDD63EDFFDD69CD690
:1048E000BCD61EE75EE75EDF7FDF7EDF7EE7DCE6CD
:1048F000DCF6FBF61CEFFCEE3DFF6FB32FC3ADC241
:10490000A9B1A9A9CDC253DC93DCD5DCF5DCF8ED67
:104910001CFF1CEF1CEFFCF6FCF6FBEE9EFF9FF766
:104920003EE79BD6BFFFDFFF57ADFFF71DC7DCB6E5
:104930003DD77EEF5EF7F5C457DD53BC91A3709B66
:104940006D822C7A2C7A4D7AD4A399DDBBF699F638
:10495000FBFE1BFFFBFE1BFFDBFEFBFE3CFF3CFFE9
:10496000FCFE73BCCD8ACD8AD0A379EE7DFFD293B5
:104970009DE6B68CF984BA849CD6DEFF56BD36CD52
:10498000FCFE99EE3BFF17E6B8D5126BB55BF182E2
:10499000F3DBD293F362F372AF62F8C51BFFFAFE4A
:1049A000FAFEFAF61BFF1BFF3BFF3CFF5CFF3BFFE1
:1049B0001BFF3BFF3BFF1BFFDAF6DAFEB9FE79F681
:1049C00059F678EE78F659EE7494B67C1DA63FD76A
:1049D0003FDF3EDF3EE7BCD61EE75EE7BCCEBCD67F
:1049E000DDDEBCD61DDF3EDF5EDF5EDF5EDFBBDE11
:1049F000BCEEDBF6FBEEDCEEFCFE4EB30EC38DC26E
:104A0000A9B1A9A9CDC253DC93DCD4DCF5DC97E5D0
:104A1000FCFE1CEF1CF7DCF6FCF6FBEE5DF7DFF7A7
:104A20007EE79ACE7EEF5EE733847FEF7ED71DBFB1
:104A3000FCBEFCD67FF7FEFE54B47193308B0C7233
:104A40004D7A4E7A6D8AF09252937CEEBAEE1BFF4D
:104A5000FBFE3CFF3CFF1BFF1BFF3BFFFBFEFBFE87
:104A60003BFF3CFF5DFF3DFFFCFEBAF618E679C553
:104A7000D8A43995F984BB8CDABDDFFF56C577D54C
:104A80001CFF58E69DFF78E6BBF63494F46B529316
:104A900034DCD193B57BD59B527B0F6B5EFF1BFF44
:104AA0001BFF1BFF3BFF3BFF3CFF79E654C51CFF90
:104AB0001CFFFBFE58EEB9F61BFFDAFEBAFE99FEAC
:104AC000B9FEB9FEBAFE15BD9594DEC63FD73FD7F5
:104AD0001ED71ED7DCCE1DD71EDFDDD67CCEFDDE79
:104AE0001EDFDDD65EDF3ED73ED75ED75EDFBBDEA4
:104AF000BCEEDBF6DBEEBBEEBCFE2EB30ECB8DC206
:104B0000A9B9A9A9ACBA53E453D4D4DCF5DC76E551
:104B1000DBFEFBEEDBF6BBF6BBF6DBEEDBEEDFFF30
:104B2000BFEF18BEFCD6BCC6968C3BC6DFF7DDCE09
:104B30003DD7BFF7BFFF9CEE308375B4F7C4CF8A73
:104B40008E8293ABEE92519BD39B3EFFFBF6FBF61E
:104B5000FCFE3BFF3BFF3BFF3BFF3CFFFAF699EEC1
:104B60001AF71BFFFBFE9AF69AF617EEF7DDD9CD82
:104B70009CADF8841A8D9A8C9AADDFFF15BDF8E5CF
:104B80001CFFD2ACBAE65CFF35C598C57163D3ABE8
:104B9000F3D3D293B48BF4ABB38B737B7494BEFF1B
:104BA0001BFF3CFF3CFF3BFF3CFFBAF64D8B51BC6B
:104BB000D7EDD7ED14CD14C53BFFFBFEFBFEFAFE8F
:104BC000DAF6BAFE39E65AD63FDF1FD71FCF3ECFFF
:104BD0003ECF1DCF1DCF3ED71DCF7BCE7BCE1EDF60
:104BE0001EDF1ED73ED73ED73EDF5ED75EDF9BD6A9
:104BF0009BEE9BF6BBEE9BEEBCFE0EB3EECA6CC208
:104C0000A9B9A9A98CBA53DC53D4B4D4D4DC76E5C1
:104C1000BBFE9AEEBAF69BF69BF6BBEE9AE69FF7C2
:104C2000DFF7BBD6FDD61BB61BAE78A5BFFF3EEFA8
:104C30009EEF7EF756BDF193F293139CAE7AAE824F
:104C4000CF9A92B370A3BDFEB5ACDFFF1AF71BFF7E
:104C5000FCFE5CFF5CFF5CFF5CFF3BFF1BF778E644
:104C60001AF71AF7FAF6DAFEBAF6DBFEFBFE98C57B
:104C70005B9DFB9D987CBB94399DFFFFF5B46B6AEF
:104C800051A4DAEE38D6FBF659DE7AD6127CD3B3CD
:104C9000F3DBF1A314AC53C47293168C8E52B39C05
:104CA0009EFF3DFF3CFF3CFF3CFF7DFF6D9315DD0C
:104CB000D8FDB8FDB7EDD7ED1BFF3BFF1BFF1BF782
:104CC0003BF73CFF7FFF1DDF1ED7FED61ED71ECF52
:104CD0001ECF1DCF3ED7FDCE7BC65BCE5CCEFED6B3
:104CE0001ED73ED71ED71ED71ED73ED75ED79BD620
:104CF0007BE65AEE5AEE5AEEBCFEEEB2ADC24CBAAC
:104D0000A9B1A9B18CBA32DC53D4B4D4B4D456E529
:104D10009AFE9AEE9AEE7AF69AF67AEE9BEE1DEFEE
:104D20007EEF7EE79FEF967C5FC77BB6BCDE9EFF83
:104D30007DEFBDF7BEFFDFFF5FFF36BD5093F2B3DF
:104D400079F576DC3AF63EFF19D69DFF1AEF1BFF88
:104D5000FCFE3CFF3CFF3CFF3BFF3BF77CFF5BFF67
:104D60003BFF1BFF1AF7FAF6FBFEFBFE1BFFF9C524
:104D70005B95197D398DBA94D88CFFFF6F7B0952F2
:104D800018D6DBE61CEFD7CDFFFF18C63EE7B2B35F
:104D9000D2DB12B491AB11CCF4A31794F15A318445
:104DA000D0839CE65CFF5CFF5CFF3CFFB7DDF4DC7E
:104DB000B8FD77FDB8FDB7E5FBFE3BFF7CFFBDF717
:104DC000BDF79EFF3EF7BCCEDCC6BCCEBDCEDECE70
:104DD000FECEDECEBDCE3BC61AC63BCE5CCEFED6E8
:104DE0001ED71ECF1ED71ED71ED71ECF3ED77ACEB8
:104DF0003AE65AEE5AEE3AEE7BFECDB28DC22CBAAE
:104E000089B9A9B18CBA32DC53D494D494DCF4DCE3
:104E10005AFE59EE59EE5AEE5AEE7AF659E6DCE6AB
:104E20003EE75EE75EE7FAB57CBE9EDFD8BD9EFF3B
:104E30007EFF7EFF7EF77EF77EF7DFFFFDEEEE8AD8
:104E400038F539FD58F5CD8AB7D51BF73BF71BFF71
:104E50001CFF1BFF3BFF3BFF3BFF3CFF3BFF3BFFC0
:104E60003BFF3BFF3BFF1BF7FAFE1AFF9EFFB68C92
:104E70001A8D1A8DDDA5D98C7684FFF74E6B0D6BDC
:104E8000DFFF9AEE7DFF39D69EFF1CEFFFFF56D560
:104E900091C3D1CB91C311CCD2AB569C5263D27388
:104EA00077B51DF7D9D5DCF63DFF1BFF5CFF75D547
:104EB00055DDB7F555DD59EE7DFF7DFF9EFF9EFF69
:104EC0009EFF1DF77BD6BCCE5BC63BC65BC67CC6D1
:104ED0007CCE5BC61AC6FAC5FAC51AC65BC6FDCE3D
:104EE000FDC61ECFFECE1DCF1EC71ECF1DD75BC673
:104EF0003BD65AE639EE39EE3AFEADB28DC22BBA48
:104F0000A9B9A9B14BBA32DC52CC73D474DCD4D475
:104F100039F659EE59EE59EE3AEE39EE59EE7BD6A6
:104F20003FE77FEF3AC61ED7BCC6BFEF1CDF9AD65D
:104F30007EFF7EFF7FFF7EFF7DF79EF7DFFFF8CDD0
:104F40000A6A8E92AE92B1A35AE61BF71BF71BFFBB
:104F50001CFF1BFF3BF75BF73CFF1BFF3BFF5CFFAE
:104F60003BFF3BFF3BFF1BFF3CFF5CFFB7BD3995A1
:104F7000198DF98CFDA53995347CBFF76B4AAC5A75
:104F8000F5B435C53CFFB7C53DF79EFFBEFF7AEED1
:104F900090BBB1D3B1CBB1CB91B3149C726BF37B0B
:104FA000DFFF39E65BDE78D519E67DFF1BF75CFF96
:104FB000BAF6DBFE5CFF9EFF9EFFBEFFBEFF3DFF1D
:104FC0009BEE9BE69CD63BC69CCE3BC65BC63BC6D7
:104FD0005BC61AC6DABDFAC5FAC5FAC55BC6FDC618
:104FE000FEC6FECEDDCEFDC6FEC6DDCEFDD67CC63F
:104FF0007CCEF9DDF8ED39EEB8FD8CB28CC22BBA5F
:10500000A9B1A9B1C9A932DC52CC73D474DC93D450
:10501000D8ED19EE18E619E619EE19EE19EE5BDE79
:10502000BDD6BCCEFDD61ED75FDF3DE7DFFFFCE679
:105030005DF77EF77EF71CF7DBEE7EF79EF7DFFF6E
:10504000FDDED49C5BE6FCFEFCFEDBFEFBFE1BFFF4
:105050003BFF3BFF5BF75BF73BF77CFF7CFF3BF7DE
:105060003BFF3BFF3CFF3CFF1CFF39E6B5AC399DE5
:1050700039959B95FDA53895137C7EF768392F6B84
:105080000F732D8319DE1DEF5AD6BFFFBEFF5AE600
:105090004FBB70D390CB70D391C314AC14940F73E7
:1050A000F6BC19DED4A41AE612B46F9BFCF67DFFA1
:1050B000DFFF9EFF9EFFBEFF7DF7FAEE79DE7AE608
:1050C0005ADE3AD61AC65BC61FE7FAC51AC6FABD3B
:1050D000DABDB9BDDABDB9BDB9BDB9BD1ABEDDC64F
:1050E000DEBE9DC6BDC6FDC6BDC6DDCEBCC69CB679
:1050F0009DC6D9D5D8E5F8E5F5E46CB26CC20BB223
:10510000A9B1A9B189A933E432CC53D473DC93D4C7
:1051100097EDD8EDD8E5D8E5D8E5D8EDD8E53AD67D
:10512000DDD65EDFBFEF1ECF5EDFFBDE9EF7BFFF8B
:105130009EF79EFF7EFF7DF7FBEE9BE6BCE6DCE67E
:10514000FDDEBCCED8C5F7CD79EEFBFEFAFE1BF72F
:105150005BF73BFF5CFF5CF73CFF95D517DE7CFF00
:105160003BFF3BFF1CFF3DFF1DF774B4D39B5AADC3
:105170007B9DB8741D9E1CAEF37336B5A949CF62F2
:10518000EF6ACD723DFFBFFF9CE65EF7BFFF5AEEB0
:105190004FBB70D390CB4FDB70CB91ABF7BC5CE6D1
:1051A000F29BA851ED62D19BF6D498E5BBEE1CE7CB
:1051B0007EEF5EF7FCEE79DE58DE39DE59E65AE620
:1051C000FAD5F9CDBDDE1EE71BC6B9BD3BCEF9BD94
:1051D00077AD99B579B579B59AB579B5FAB59DBE7A
:1051E000BDBE7DBE9DBEDDBE9DC6DDC63FCFFEBE43
:1051F000BEC6FACDD9E5D8E594DC6CBA4CBA0BB290
:10520000A9B1AAB989A912E432D453D453D473D41E
:1052100056E5B7EDB8E5B8E5B8E598ED97E5FAD508
:10522000FDDE7EEFDFF73EDF1DDFBEF79AD6FFFF24
:10523000BFFFBEFF9EFF9EF79EF77EFF3EFFDCEEA8
:1052400093A41ACE18CE38D6B6D558EEFAFE3BFF48
:105250003BF73CFF1BFF3CFF14CDCFABB2BC7CFF48
:105260005BFFFBFE3CFFFCEED4ACB5C4D3AB97A414
:1052700019959B8D3EA67EBE1484718B8949CF62A1
:10528000CE629083FFFF9EFF3EF77EF7BFFF5AE698
:105290002FB370CB6FC32ECB70C32FA3BDF65BDED5
:1052A000FDF6F5B497BD77CD98E557D53DFF7EEF78
:1052B0003DE79CE639D659E639E639E63AEED9D5E6
:1052C0003BD6BDDE1DE75ACEB8BD7CD63EEF5EEFC5
:1052D0005BD677B578B558AD79B559B5DAB5FEC6B0
:1052E000BEBE3CB69EBEBDBE9EBE7DBE9DB6BDB61C
:1052F0007DB61BC698CDB8E533D44CBA2BBAEBB10A
:10530000A9B1A9B989A970D312D433CC53D473D419
:10531000F5DC97ED97E597E577E577ED77E5B8CD9F
:10532000BCDEBFF7BFFF9FF75EEFBFFF5ACE7BCE5D
:10533000DFFF9EF7BEFF9EF7DFFF9EFF5EFF7EFF53
:105340009BE697CD3CFFFBF61BFFFAFE1AFF1BFF07
:105350003BFF1BFF3CFF17E6D7EDD3D479F63BFFAD
:105360005BF7FBFE9AF6F7CDB3A457D571B3B6C47D
:10537000F7AC1CB63CB65DCEF0824C7A8951EF6A30
:10538000AE5AF18BFFFF9EFF7EFF9EFFDEFF59E6C8
:105390004FB370C3D1C352D4D4D4D8E5FDF63EF791
:1053A000FDEE1EF756BDF4BC76D539E6BFFFFFFF14
:1053B000FDE6BCE676C5FCF69AEED8D57BE6BDE602
:1053C000BDDEDDE6BBDE9BDE9FF7DFFFBFFFDFFF5D
:1053D000DFFFBFFFD9BD37AD58AD38ADBAAD7DB633
:1053E0007DB6FCAD5DB67DB67DAE7DB65DB61CAE60
:1053F0005EB65DC678BD77E54FBB2CBA0BBAEAB195
:10540000A9B189B9A9B10EC312D432CC32D453D4C4
:1054100094D477E577E577E557E556ED76E577CDF2
:105420003DEFBEFF9EFF9EFF7FFFBFFF5EEF57ADCC
:105430001DE7DFFFBEFF9FFF9EFF9EF79DF79DF7D5
:10544000DEFF38D69AF61BFFFAF63AFF1AFF1BFF6B
:105450001BFF5CFFBDFF7CFF38EE9AFE3CFF3BFF6D
:105460003AEF59EE18E65CF779D6B0AB91C34FBB73
:10547000D1A3D9C5DABDF6BCEB816C8A6849AE62AE
:105480008D528F7BFFFF7DFF9EFF9EFFBEFFDCF6F0
:10549000D5DC37F557ED97ED96DD39DEFCEEFDE610
:1054A000FDE6FEE619DE35CD18E61BEFFFFFDFFF58
:1054B000DCE639D618CEDAEE9AE6BFFF5FEFBDDE46
:1054C0009CD6BCDEFCE6DFFFBFFFBFFFBEFFBEFF1A
:1054D000BEFFDFFFFFFF78B517A518A59AA55DAE43
:1054E0005DAE9A9D1CAE5CAE7CA65CAE3CB65A9D91
:1054F0003EB61CB6D9B577E5CDB22CBAEBB9AAB198
:1055000089B9A9B1A9A9CDC212DC11CC52D453DCFE
:1055100053D436E536E536E536E535E515DD97DD78
:105520009FFF9EFFBDFF9EF7BFFF9EFF5FF799ADF8
:10553000B89D7EDFBFFF7DFFBEFF9EF75DEFBEFF24
:10554000BEFFDEFFF3ACDBEE9DFF3CFFBDFF9DFF2A
:105550009DFF78D68F7BCD62FBEE3BFF1BFF5DFF8F
:10556000F7DDF3C43BFF1BF75DFFF1BBD1BBD1BB44
:1055700030BB77C51CF76DA2CFA27193AD6AF28BD9
:10558000F28B73A4FFFFBEF7BFFFBFFFBFFF5DFF3E
:10559000D8DD36E515E535DD35CDDCF69DE6DFE613
:1055A000DDE679D6D5CD7CFF58E67CF7FFFF9BD6AC
:1055B0005BD618C6D8D51DF7DFFFDFF73EEF7CDEE0
:1055C0009BDE9BDEDFFFBFFFBEFFBEFFBFFFBFFF57
:1055D000BEFFBEFFBFFFBFFFD6A438AD7A9D5DAE54
:1055E0001CA6389DDBA53DA69B9D5DAEFB9D7995D8
:1055F0009A9D1CAE1BAED6DC6DBA4AB20AAA6AB13D
:1056000089B9A9B1A9A92BB212DC11D432CC33D4F7
:1056100033D4F5E415E515DD15DDF5DC35E557CDBD
:10562000BFFF9DF7BEFF9FFF7EFF9EFF7EEFFAB597
:10563000FAB537AD1DE7BFFF9EFFBFFFBFF7BBD673
:105640007EEFFFFFBACE729C15C559E658E618DE0C
:10565000B7CD8D8B11947083DBE6BDFF9EFFD8D54F
:10566000F4C4FBFE5CFF5CFF5CFFB8EDF5DC16EDFF
:10567000B6DC3DEF18D674E458E598BDF38B74940E
:10568000949CF293D8CDFFFF9FFFBFFFBFFFDCEEDE
:105690007BE6D4C4F5D435C59FFF1DEF7CD65BD621
:1056A00019CEB9DE7CFFD6DD92B4FFFF19CE5BD6F2
:1056B000DAC5BBD6BFFF9EFFDFFFDFF7FDEE9CE63E
:1056C00076B5BFFFBFFFBFFFBEFFBEFFBFFFBFFF7F
:1056D000BEFFBEFFDFFFBFFF7BD6D7A4399D3DA62F
:1056E000DB9D389D9A9D3D9E3A95DCA5DB9D7A9584
:1056F000D88C1CA61CA6B6BC2CB2EAB9EAA98AB101
:10570000A9B9A9B1A9B1EAA9F1DB12D411CC12D47B
:1057100012D4B4DCF5DCF5DCF5DCD4DCD5DC36C544
:10572000DFFF9DF77DFF7ADE9FFFBFFF9BBEFAB5CF
:10573000DCD5B7B478B5FDDEBFFF7FF7BFF7DFF785
:10574000BBC6BCC65EDF739432A411A431AC11ACED
:1057500015D575D552AC98CDFCF6DBEE18D6B7CD85
:10576000F4C4FBFE3CFF7BF77CFF9AF693CC74DC21
:1057700078DDFFFFF3BC73E4F5D4B4A4B17B748C83
:10578000348C339495A41DE7BFFFBFFF9FFF3DF707
:105790003ADEB9D5F6C47FFF5EEFBCD69BD618C6FD
:1057A000FAEE5BFFD4D4B4D498E557C553941FEFF9
:1057B00099BDDDE6DFFFBEFFBEF7BEFF1DF732A4D9
:1057C0009BDEBFFFBFFFBFFFBEFFBEFF9FFF9FFF70
:1057D0009EFFBEFF9DFFBEFF9FFFD6A4199DDC9DCF
:1057E000398DD78C5A951D9E3A8D3A8D39957BA56A
:1057F000778C9A9D1C9EB69C0CA2CBC9A9B989B185
:10580000A9B1A9B1A9B1A9A970D3F1D312D4F2D386
:1058100032D473D4F4DCD4DCD4DCB4DCD5D4D8CD2D
:10582000DFF7BEFF76CDF8D57FFF9FFFBBC63BCE2F
:10583000D8CC56BCFBC557AD7BD67FF7FDDE3ED737
:105840003FCFBDB6D99D7CCE78C5D5BCB4BCD4CC39
:1058500094D492CCF5CC15CD15BD7ADE3DF7DCEEB7
:1058600014BDFBFE1BFF7CFF5BF7DAF6B3CC73CCF9
:10587000DCEEFBD676DD32ECD5F40E8B4F7BF2837B
:105880001384F38358B51EEF9EFF9EFFDFFF7ADE81
:10589000BCE69CE63BDE3EF79DDEBDDE5AD6B9EEA9
:1058A000D8FEB1D473FC74FC74E4909BD4A4DFFFE5
:1058B000F9C51ACEBFFFBEF7DFFF5DFFD7DD15BD0F
:1058C0007EFF7EFF3DEF5DF79EFFBEFF9FFF9FFFC8
:1058D000BEFF9DFF9DFF9EFFFFFF17ADF894DC9577
:1058E0005A8DD884398DFC953A8DD884B884F99C2A
:1058F0003684D8841C96D87C2E82ABC169B9A9B1F4
:10590000A9B1A9B189B989B10FD3F1DB11D4F2D30F
:1059100012D432D4B4DCB4DCB4DC94DC94CC3AD60B
:10592000DFFFF8DD72BCB8D57FFF7EFFB7BDF5C4E1
:1059300075CC35BC3BCE36ADB3ACB7C53DEFFDDE67
:10594000DDC61EC73BAE79ADFAD59CEED8D5B3BC4B
:1059500073BCF4CC14CD76CD57BD7BDEBFFFBFFF4B
:10596000BBE679E61BFF7CFF3BF75CFFB3C494C446
:105970007FFF56B53EFFF1E333FC53DCAD820E737F
:10598000D283D2837CDEDCE69EFF9EFF5DF7DCE601
:10599000FDEE9CDE7CDED8CD7DE67DE6B7D5F5ED6F
:1059A00090DC92F432FC33FC33DCAF9B14AD7DEF22
:1059B000FCE678BDBFFF9FFF5DFF31AC76CD7AE698
:1059C0003AD619D63DEF9FFFBEFF9EFF9EFF5DF7C3
:1059D0001CEFBEFFBEFFBFFF5DF799C55584FD9D5F
:1059E0009B8DD884F9849C8D5B8DD87C3A8DF994FD
:1059F000778C1574BC95B964F162CCA16AB9AAB967
:105A0000A9B1A9B18AB989B14CBAF1DBF1D3F2D30A
:105A1000F2D312CC73D494D493D473D474BC1EF741
:105A2000B9CD33C473D497CD7EFFDCF693BC73D469
:105A300094D473BCD5AC7AE6FBF6B9F658DE7ADEC0
:105A40003EE7FDCEFECEDAB599C5DCEEBFFF5EF7D0
:105A500039DE36CD14BD55BD57B5FACDFFFFBEF7C3
:105A6000BFFFF7D59AEEFAF67CFF5CFFB3BCB5C476
:105A700038C59DE6DFFF14CDD1DB53FC11CC8C7A09
:105A8000EE72549CFEF67EF79EFF7DFF9EFF9EFF0A
:105A90009FFF7EF7FDE639DE99CD7DEE76D593ED5D
:105AA00070E453FC31DC93E412BC2E83F4A4FFFFBA
:105AB0009AE6AC62BFFFDCF6D1B312BC76CDFCEE49
:105AC0005EFFBFFF3DF71CEF3DF77EFF9EFFBEFF71
:105AD0001CEF39D63EF77FFFBCE6FACD3584BC9586
