:020000040800F2
:100000001804002045010008710400081D040008C0
:100010006D0400088D0100082D0600080000000096
:10002000000000000000000000000000B50400080F
:10003000710200080000000073040008C9050008F0
:100040005F0100085F0100085F0100085F01000810
:100050005F0100085F0100085F0100085F01000800
:100060005F0100085F0100085F0100085F010008F0
:100070005F0100085F0100085F0100085F010008E0
:100080005F0100085F0100085F0100085F010008D0
:100090005F0100085F0100085F0100085F010008C0
:1000A0005F0100085F0100085F0100085F010008B0
:1000B0005F0100085F0100085F0100085F010008A0
:1000C0005F0100085F0100085F0100085F01000890
:1000D0005F0100085F0100085F0100085F01000880
:1000E0005F0100085F0100085F0100085F01000870
:1000F0005F0100085F0100085F0100085F01000860
:100100005F0100085F0100085F0100085F0100084F
:100110005F0100085F0100085F0100085F0100083F
:100120005F0100085F0100085F0100085F0100082F
:10013000DFF80CD000F018F800480047E10600088E
:10014000180400200648804706480047FEE7FEE7FF
:10015000FEE7FEE7FEE7FEE7FEE7FEE7FEE7FEE777
:10016000CD05000831010008064C074D06E0E068A7
:1001700040F0010394E8070098471034AC42F6D3EE
:10018000FFF7DAFFA4070008C407000800BFFEE776
:1001900039B1084A1268012383401A43054B1A609B
:1001A00006E0044A1268012383409A43014B1A6017
:1001B000704700000074004030B5002200230A4C54
:1001C000226840F6FE748440A243D1E900452C43E6
:1001D0008D682C43CD6844EA050303FA00F42243FA
:1001E000014C226030BD00000074004008B50022C0
:1001F0000092054A009200F10802009B1A44009206
:10020000009A116008BD00000074004000B585B080
:100210000121042000F03EF90121480700F02AF9ED
:100220001020ADF8100000208DF8130003208DF889
:10023000120004A90D4800F01CF810210B4800F032
:10024000EBF8002000900190029002200390694694
:100250000020FFF7B1FF01210020FFF799FF0021E7
:100260000846FFF7C3FF05B000BD000000080140CD
:1002700070472DE9F04102460025002600200023AA
:100280000024002791F803C00CF00F0591F803C07B
:100290000CF0100CBCF1000F03D091F802C04CEA36
:1002A000050591F800C0BCF1000F31D014680020A2
:1002B0002BE04FF0010C0CFA00F3B1F800C00CEA8F
:1002C00003069E4220D183004FF00F0C0CFA03F777
:1002D000BC4305FA03FC4CEA040491F803C0BCF1EA
:1002E000280F06D14FF0010C0CFA00FCC2F814C024
:1002F0000AE091F803C0BCF1480F05D14FF0010CA2
:100300000CFA00FCC2F810C0401C0828D1D31460BD
:10031000B1F800C0BCF1FF0F34DD546800202EE0BE
:1003200000F1080C4FF0010808FA0CF3B1F800C016
:100330000CEA03069E4221D183004FF00F0C0CFA09
:1003400003F7BC4305FA03FC4CEA040491F803C02C
:10035000BCF1280F05D100F1080C08FA0CF8C2F81E
:10036000148091F803C0BCF1480F07D100F1080CCC
:100370004FF0010808FA0CF8C2F81080401C082859
:10038000CED35460BDE8F081F0B50A4600230024C6
:100390000021002500F00046B6F1004F02D11D4EAD
:1003A000F16901E01B4E7168C0F3034583B200F4AC
:1003B0004016B6F5401F08D121F07061154E7668E1
:1003C00026F07066134F7E6012E000F48016B6F5DA
:1003D000801F06D1032606FA05F4A14341F070619F
:1003E00006E0460D360103FA06F6B14341F07061AE
:1003F00022B1460D360103FA06F6314300F00046FD
:10040000B6F1004F02D1034EF16101E0014E71607F
:10041000F0BD0000000001400161704700BFFEE731
:1004200008B50121142000F035F801210C48FFF730
:10043000ABFF4FF44070ADF8000048208DF803008A
:1004400069460848FFF715FF0120ADF80000282095
:100450008DF8030069460448FFF70BFF08BD000054
:1004600000023000001001400008014000BFFEE71C
:100470007047704729B1064AD2690243044BDA61DA
:1004800004E0034AD2698243014BDA6170470000FD
:100490000010024029B1064A92690243044B9A6156
:1004A00004E0034A92698243014B9A61704700005D
:1004B00000100240704710B500F002F810BD0000B7
:1004C0000CB50020019000903348006840F4803063
:1004D0003149086000BF3048006800F400300090E7
:1004E0000198401C0190009818B90198B0F5A06FD0
:1004F000F1D12948006800F4003010B101200090CB
:1005000001E0002000900098012843D123480068B2
:1005100040F01000214908600846006820F0030000
:1005200008600846006840F0020008601A48406809
:10053000194948600846406848600846406840F4E9
:10054000806048600846406820F47C104860084697
:10055000406840F4E81048600846006840F0807049
:10056000086000BF0C48006800F000700028F9D057
:100570000948406820F00300074948600846406881
:1005800040F00200486000BF0348406800F00C00E3
:100590000828F9D10CBD00000010024000200240E4
:1005A000042808D14FF0E021096941F004014FF01F
:1005B000E022116107E04FF0E021096921F0040118
:1005C0004FF0E022116170477047000010B51348EA
:1005D000006840F001001149086008464068104971
:1005E00008400E494860084600680E4908400B491B
:1005F00008600846006820F48020086008464068CB
:1006000020F4FE0048604FF41F008860FFF753FF9E
:100610004FF000600449086010BD00000010024067
:100620000000FFF8FFFFF6FE08ED00E000BFFEE768
:1006300002E008C8121F08C1002AFAD170477047AB
:10064000002001E001C1121F002AFBD17047000009
:1006500010B56FF00400FFF7A3FF0A4800680A49CD
:10066000B0FBF1F0094908700846007800EB400142
:10067000C1EBC0104FF6FF7101EAC00004490880C9
:1006800010BD00000000002000127A0014000020BD
:10069000160000200146114A12884A434FF0E02319
:1006A0005A6100229A611A46126942F001021A61E7
:1006B00000BF4FF0E022106900F001021AB100F40F
:1006C0008032002AF5D04FF0E022126922F00102B8
:1006D0004FF0E0231A6100229A6170471600002053
:1006E00000260A2500270024FFF7B2FFFFF78EFD42
:1006F000FFF796FE39460020FFF778FD4DE02748CA
:10070000006858B900BF254800680028FBD00520C4
:10071000FFF7C0FF142D01DA681CC5B21F48001D89
:10072000006860B900BF1D48001D00680028FAD0AD
:100730000520FFF7AFFF012D01DD681EC5B2184887
:10074000006860B100BF164800680028FBD1052092
:10075000FFF7A0FF701CC6B2012E00DD002616B107
:10076000012E0CD109E0202C02DA6006070E03E00E
:10077000C4F13F004006070E02E0274600E000BF3C
:1007800000BF601CC4B23F2C00DD00242846FFF7E8
:1007900081FFB9010020FFF729FDB0E720012242C7
:1007A00000012142C40700080000002018000000DA
:1007B00030060008DC0700081800002000040000D4
:1007C0004006000800A24A040000000000000000EB
:0C07D000010203040607080900000000F5
:0400000508000145A9
:00000001FF
